{
	"contracts/FundMe.sol": {
		"FundMe": {
			"abi": [
				{
					"inputs": [
						{
							"internalType": "address",
							"name": "funder",
							"type": "address"
						}
					],
					"name": "addressToAmountFunded",
					"outputs": [
						{
							"internalType": "uint256",
							"name": "amountFunded",
							"type": "uint256"
						}
					],
					"stateMutability": "view",
					"type": "function"
				},
				{
					"inputs": [],
					"name": "fund",
					"outputs": [],
					"stateMutability": "payable",
					"type": "function"
				},
				{
					"inputs": [],
					"name": "minimumUsd",
					"outputs": [
						{
							"internalType": "uint256",
							"name": "",
							"type": "uint256"
						}
					],
					"stateMutability": "view",
					"type": "function"
				},
				{
					"inputs": [],
					"name": "withdraw",
					"outputs": [],
					"stateMutability": "nonpayable",
					"type": "function"
				}
			],
			"devdoc": {
				"kind": "dev",
				"methods": {},
				"version": 1
			},
			"evm": {
				"assembly": "    /* \"contracts/FundMe.sol\":112:940  contract FundMe {... */\n  mstore(0x40, 0x80)\n    /* \"contracts/FundMe.sol\":201:205  5e18 */\n  0x4563918244f40000\n    /* \"contracts/FundMe.sol\":173:205  uint256 public minimumUsd = 5e18 */\n  0x00\n  sstore\n    /* \"contracts/FundMe.sol\":112:940  contract FundMe {... */\n  callvalue\n  dup1\n  iszero\n  tag_1\n  jumpi\n  0x00\n  dup1\n  revert\ntag_1:\n  pop\n  dataSize(sub_0)\n  dup1\n  dataOffset(sub_0)\n  0x00\n  codecopy\n  0x00\n  return\nstop\n\nsub_0: assembly {\n        /* \"contracts/FundMe.sol\":112:940  contract FundMe {... */\n      mstore(0x40, 0x80)\n      jumpi(tag_1, lt(calldatasize, 0x04))\n      shr(0xe0, calldataload(0x00))\n      dup1\n      0x098de820\n      eq\n      tag_2\n      jumpi\n      dup1\n      0x3ccfd60b\n      eq\n      tag_3\n      jumpi\n      dup1\n      0x3e47d6f3\n      eq\n      tag_4\n      jumpi\n      dup1\n      0xb60d4288\n      eq\n      tag_5\n      jumpi\n    tag_1:\n      0x00\n      dup1\n      revert\n        /* \"contracts/FundMe.sol\":173:205  uint256 public minimumUsd = 5e18 */\n    tag_2:\n      callvalue\n      dup1\n      iszero\n      tag_6\n      jumpi\n      0x00\n      dup1\n      revert\n    tag_6:\n      pop\n      tag_7\n      tag_8\n      jump\t// in\n    tag_7:\n      mload(0x40)\n      tag_9\n      swap2\n      swap1\n      tag_10\n      jump\t// in\n    tag_9:\n      mload(0x40)\n      dup1\n      swap2\n      sub\n      swap1\n      return\n        /* \"contracts/FundMe.sol\":540:938  function withdraw() public {... */\n    tag_3:\n      callvalue\n      dup1\n      iszero\n      tag_11\n      jumpi\n      0x00\n      dup1\n      revert\n    tag_11:\n      pop\n      tag_12\n      tag_13\n      jump\t// in\n    tag_12:\n      stop\n        /* \"contracts/FundMe.sol\":235:311  mapping(address funder => uint256 amountFunded) public addressToAmountFunded */\n    tag_4:\n      callvalue\n      dup1\n      iszero\n      tag_14\n      jumpi\n      0x00\n      dup1\n      revert\n    tag_14:\n      pop\n      tag_15\n      0x04\n      dup1\n      calldatasize\n      sub\n      dup2\n      add\n      swap1\n      tag_16\n      swap2\n      swap1\n      tag_17\n      jump\t// in\n    tag_16:\n      tag_18\n      jump\t// in\n    tag_15:\n      mload(0x40)\n      tag_19\n      swap2\n      swap1\n      tag_10\n      jump\t// in\n    tag_19:\n      mload(0x40)\n      dup1\n      swap2\n      sub\n      swap1\n      return\n        /* \"contracts/FundMe.sol\":318:534  function fund() public payable {... */\n    tag_5:\n      tag_20\n      tag_21\n      jump\t// in\n    tag_20:\n      stop\n        /* \"contracts/FundMe.sol\":173:205  uint256 public minimumUsd = 5e18 */\n    tag_8:\n      sload(0x00)\n      dup2\n      jump\t// out\n        /* \"contracts/FundMe.sol\":540:938  function withdraw() public {... */\n    tag_13:\n        /* \"contracts/FundMe.sol\":581:600  uint256 funderIndex */\n      0x00\n        /* \"contracts/FundMe.sol\":577:760  for(uint256 funderIndex = 0; funderIndex < funders.length; funderIndex++) {... */\n    tag_23:\n        /* \"contracts/FundMe.sol\":620:627  funders */\n      0x01\n        /* \"contracts/FundMe.sol\":620:634  funders.length */\n      dup1\n      sload\n      swap1\n      pop\n        /* \"contracts/FundMe.sol\":606:617  funderIndex */\n      dup2\n        /* \"contracts/FundMe.sol\":606:634  funderIndex < funders.length */\n      lt\n        /* \"contracts/FundMe.sol\":577:760  for(uint256 funderIndex = 0; funderIndex < funders.length; funderIndex++) {... */\n      iszero\n      tag_24\n      jumpi\n        /* \"contracts/FundMe.sol\":665:679  address funder */\n      0x00\n        /* \"contracts/FundMe.sol\":682:689  funders */\n      0x01\n        /* \"contracts/FundMe.sol\":690:701  funderIndex */\n      dup3\n        /* \"contracts/FundMe.sol\":682:702  funders[funderIndex] */\n      dup2\n      sload\n      dup2\n      lt\n      tag_26\n      jumpi\n      tag_27\n      tag_28\n      jump\t// in\n    tag_27:\n    tag_26:\n      swap1\n      0x00\n      mstore\n      keccak256(0x00, 0x20)\n      add\n      0x00\n      swap1\n      sload\n      swap1\n      0x0100\n      exp\n      swap1\n      div\n      0xffffffffffffffffffffffffffffffffffffffff\n      and\n        /* \"contracts/FundMe.sol\":665:702  address funder = funders[funderIndex] */\n      swap1\n      pop\n        /* \"contracts/FundMe.sol\":748:749  0 */\n      0x00\n        /* \"contracts/FundMe.sol\":716:737  addressToAmountFunded */\n      0x02\n        /* \"contracts/FundMe.sol\":716:745  addressToAmountFunded[funder] */\n      0x00\n        /* \"contracts/FundMe.sol\":738:744  funder */\n      dup4\n        /* \"contracts/FundMe.sol\":716:745  addressToAmountFunded[funder] */\n      0xffffffffffffffffffffffffffffffffffffffff\n      and\n      0xffffffffffffffffffffffffffffffffffffffff\n      and\n      dup2\n      mstore\n      0x20\n      add\n      swap1\n      dup2\n      mstore\n      0x20\n      add\n      0x00\n      keccak256\n        /* \"contracts/FundMe.sol\":716:749  addressToAmountFunded[funder] = 0 */\n      dup2\n      swap1\n      sstore\n      pop\n        /* \"contracts/FundMe.sol\":651:760  {... */\n      pop\n        /* \"contracts/FundMe.sol\":636:649  funderIndex++ */\n      dup1\n      dup1\n      0x01\n      add\n      swap2\n      pop\n      pop\n        /* \"contracts/FundMe.sol\":577:760  for(uint256 funderIndex = 0; funderIndex < funders.length; funderIndex++) {... */\n      jump(tag_23)\n    tag_24:\n      pop\n        /* \"contracts/FundMe.sol\":793:794  0 */\n      0x00\n        /* \"contracts/FundMe.sol\":779:795  new address[](0) */\n      0xffffffffffffffff\n      dup2\n      gt\n      iszero\n      tag_30\n      jumpi\n      tag_31\n      tag_32\n      jump\t// in\n    tag_31:\n    tag_30:\n      mload(0x40)\n      swap1\n      dup1\n      dup3\n      mstore\n      dup1\n      0x20\n      mul\n      0x20\n      add\n      dup3\n      add\n      0x40\n      mstore\n      dup1\n      iszero\n      tag_33\n      jumpi\n      dup2\n      0x20\n      add\n      0x20\n      dup3\n      mul\n      dup1\n      calldatasize\n      dup4\n      calldatacopy\n      dup1\n      dup3\n      add\n      swap2\n      pop\n      pop\n      swap1\n      pop\n    tag_33:\n      pop\n        /* \"contracts/FundMe.sol\":769:776  funders */\n      0x01\n        /* \"contracts/FundMe.sol\":769:795  funders = new address[](0) */\n      swap1\n      dup1\n      mload\n      swap1\n      0x20\n      add\n      swap1\n      tag_34\n      swap3\n      swap2\n      swap1\n      tag_35\n      jump\t// in\n    tag_34:\n      pop\n        /* \"contracts/FundMe.sol\":806:822  bool callSuccess */\n      0x00\n        /* \"contracts/FundMe.sol\":836:846  msg.sender */\n      caller\n        /* \"contracts/FundMe.sol\":828:852  payable(msg.sender).call */\n      0xffffffffffffffffffffffffffffffffffffffff\n      and\n        /* \"contracts/FundMe.sol\":860:881  address(this).balance */\n      selfbalance\n        /* \"contracts/FundMe.sol\":828:886  payable(msg.sender).call{value: address(this).balance}(\"\") */\n      mload(0x40)\n      tag_36\n      swap1\n      tag_37\n      jump\t// in\n    tag_36:\n      0x00\n      mload(0x40)\n      dup1\n      dup4\n      sub\n      dup2\n      dup6\n      dup8\n      gas\n      call\n      swap3\n      pop\n      pop\n      pop\n      returndatasize\n      dup1\n      0x00\n      dup2\n      eq\n      tag_40\n      jumpi\n      mload(0x40)\n      swap2\n      pop\n      and(add(returndatasize, 0x3f), not(0x1f))\n      dup3\n      add\n      0x40\n      mstore\n      returndatasize\n      dup3\n      mstore\n      returndatasize\n      0x00\n      0x20\n      dup5\n      add\n      returndatacopy\n      jump(tag_39)\n    tag_40:\n      0x60\n      swap2\n      pop\n    tag_39:\n      pop\n        /* \"contracts/FundMe.sol\":805:886  (bool callSuccess, ) = payable(msg.sender).call{value: address(this).balance}(\"\") */\n      pop\n      swap1\n      pop\n        /* \"contracts/FundMe.sol\":904:915  callSuccess */\n      dup1\n        /* \"contracts/FundMe.sol\":896:931  require(callSuccess, \"call failed\") */\n      tag_41\n      jumpi\n      mload(0x40)\n      0x08c379a000000000000000000000000000000000000000000000000000000000\n      dup2\n      mstore\n      0x04\n      add\n      tag_42\n      swap1\n      tag_43\n      jump\t// in\n    tag_42:\n      mload(0x40)\n      dup1\n      swap2\n      sub\n      swap1\n      revert\n    tag_41:\n        /* \"contracts/FundMe.sol\":567:938  {... */\n      pop\n        /* \"contracts/FundMe.sol\":540:938  function withdraw() public {... */\n      jump\t// out\n        /* \"contracts/FundMe.sol\":235:311  mapping(address funder => uint256 amountFunded) public addressToAmountFunded */\n    tag_18:\n      mstore(0x20, 0x02)\n      dup1\n      0x00\n      mstore\n      keccak256(0x00, 0x40)\n      0x00\n      swap2\n      pop\n      swap1\n      pop\n      sload\n      dup2\n      jump\t// out\n        /* \"contracts/FundMe.sol\":318:534  function fund() public payable {... */\n    tag_21:\n        /* \"contracts/FundMe.sol\":400:410  minimumUsd */\n      sload(0x00)\n        /* \"contracts/FundMe.sol\":367:396  msg.value.getConversionRate() */\n      tag_45\n        /* \"contracts/FundMe.sol\":367:376  msg.value */\n      callvalue\n        /* \"contracts/FundMe.sol\":367:394  msg.value.getConversionRate */\n      tag_46\n        /* \"contracts/FundMe.sol\":367:396  msg.value.getConversionRate() */\n      jump\t// in\n    tag_45:\n        /* \"contracts/FundMe.sol\":367:410  msg.value.getConversionRate() >= minimumUsd */\n      lt\n      iszero\n        /* \"contracts/FundMe.sol\":359:437  require(msg.value.getConversionRate() >= minimumUsd, \"didn't send enough ETH\") */\n      tag_47\n      jumpi\n      mload(0x40)\n      0x08c379a000000000000000000000000000000000000000000000000000000000\n      dup2\n      mstore\n      0x04\n      add\n      tag_48\n      swap1\n      tag_49\n      jump\t// in\n    tag_48:\n      mload(0x40)\n      dup1\n      swap2\n      sub\n      swap1\n      revert\n    tag_47:\n        /* \"contracts/FundMe.sol\":447:454  funders */\n      0x01\n        /* \"contracts/FundMe.sol\":460:470  msg.sender */\n      caller\n        /* \"contracts/FundMe.sol\":447:471  funders.push(msg.sender) */\n      swap1\n      dup1\n      0x01\n      dup2\n      sload\n      add\n      dup1\n      dup3\n      sstore\n      dup1\n      swap2\n      pop\n      pop\n      0x01\n      swap1\n      sub\n      swap1\n      0x00\n      mstore\n      keccak256(0x00, 0x20)\n      add\n      0x00\n      swap1\n      swap2\n      swap1\n      swap2\n      swap1\n      swap2\n      0x0100\n      exp\n      dup2\n      sload\n      dup2\n      0xffffffffffffffffffffffffffffffffffffffff\n      mul\n      not\n      and\n      swap1\n      dup4\n      0xffffffffffffffffffffffffffffffffffffffff\n      and\n      mul\n      or\n      swap1\n      sstore\n      pop\n        /* \"contracts/FundMe.sol\":518:527  msg.value */\n      callvalue\n        /* \"contracts/FundMe.sol\":481:502  addressToAmountFunded */\n      0x02\n        /* \"contracts/FundMe.sol\":481:514  addressToAmountFunded[msg.sender] */\n      0x00\n        /* \"contracts/FundMe.sol\":503:513  msg.sender */\n      caller\n        /* \"contracts/FundMe.sol\":481:514  addressToAmountFunded[msg.sender] */\n      0xffffffffffffffffffffffffffffffffffffffff\n      and\n      0xffffffffffffffffffffffffffffffffffffffff\n      and\n      dup2\n      mstore\n      0x20\n      add\n      swap1\n      dup2\n      mstore\n      0x20\n      add\n      0x00\n      keccak256\n      0x00\n        /* \"contracts/FundMe.sol\":481:527  addressToAmountFunded[msg.sender] += msg.value */\n      dup3\n      dup3\n      sload\n      tag_51\n      swap2\n      swap1\n      tag_52\n      jump\t// in\n    tag_51:\n      swap3\n      pop\n      pop\n      dup2\n      swap1\n      sstore\n      pop\n        /* \"contracts/FundMe.sol\":318:534  function fund() public payable {... */\n      jump\t// out\n        /* \"contracts/PriceConverter.sol\":472:690  function getConversionRate(uint256 ethAmount) internal view returns(uint256) {... */\n    tag_46:\n        /* \"contracts/PriceConverter.sol\":540:547  uint256 */\n      0x00\n        /* \"contracts/PriceConverter.sol\":559:575  uint256 ethPrice */\n      dup1\n        /* \"contracts/PriceConverter.sol\":578:588  getPrice() */\n      tag_54\n        /* \"contracts/PriceConverter.sol\":578:586  getPrice */\n      tag_55\n        /* \"contracts/PriceConverter.sol\":578:588  getPrice() */\n      jump\t// in\n    tag_54:\n        /* \"contracts/PriceConverter.sol\":559:588  uint256 ethPrice = getPrice() */\n      swap1\n      pop\n        /* \"contracts/PriceConverter.sol\":598:620  uint256 ethAmountInUsd */\n      0x00\n        /* \"contracts/PriceConverter.sol\":648:652  1e18 */\n      0x0de0b6b3a7640000\n        /* \"contracts/PriceConverter.sol\":635:644  ethAmount */\n      dup5\n        /* \"contracts/PriceConverter.sol\":624:632  ethPrice */\n      dup4\n        /* \"contracts/PriceConverter.sol\":624:644  ethPrice * ethAmount */\n      tag_56\n      swap2\n      swap1\n      tag_57\n      jump\t// in\n    tag_56:\n        /* \"contracts/PriceConverter.sol\":623:652  (ethPrice * ethAmount) / 1e18 */\n      tag_58\n      swap2\n      swap1\n      tag_59\n      jump\t// in\n    tag_58:\n        /* \"contracts/PriceConverter.sol\":598:652  uint256 ethAmountInUsd = (ethPrice * ethAmount) / 1e18 */\n      swap1\n      pop\n        /* \"contracts/PriceConverter.sol\":669:683  ethAmountInUsd */\n      dup1\n        /* \"contracts/PriceConverter.sol\":662:683  return ethAmountInUsd */\n      swap3\n      pop\n      pop\n      pop\n        /* \"contracts/PriceConverter.sol\":472:690  function getConversionRate(uint256 ethAmount) internal view returns(uint256) {... */\n      swap2\n      swap1\n      pop\n      jump\t// out\n        /* \"contracts/PriceConverter.sol\":201:467  function getPrice() internal view returns(uint256) {... */\n    tag_55:\n        /* \"contracts/PriceConverter.sol\":243:250  uint256 */\n      0x00\n        /* \"contracts/PriceConverter.sol\":262:293  AggregatorV3Interface priceFeed */\n      dup1\n        /* \"contracts/PriceConverter.sol\":318:360  0x5f4eC3Df9cbd43714FE2740f5E3616155c5b8419 */\n      0x5f4ec3df9cbd43714fe2740f5e3616155c5b8419\n        /* \"contracts/PriceConverter.sol\":262:361  AggregatorV3Interface priceFeed = AggregatorV3Interface(0x5f4eC3Df9cbd43714FE2740f5E3616155c5b8419) */\n      swap1\n      pop\n        /* \"contracts/PriceConverter.sol\":374:386  int256 price */\n      0x00\n        /* \"contracts/PriceConverter.sol\":395:404  priceFeed */\n      dup2\n        /* \"contracts/PriceConverter.sol\":395:420  priceFeed.latestRoundData */\n      0xffffffffffffffffffffffffffffffffffffffff\n      and\n      0xfeaf968c\n        /* \"contracts/PriceConverter.sol\":395:422  priceFeed.latestRoundData() */\n      mload(0x40)\n      dup2\n      0xffffffff\n      and\n      0xe0\n      shl\n      dup2\n      mstore\n      0x04\n      add\n      0xa0\n      mload(0x40)\n      dup1\n      dup4\n      sub\n      dup2\n      dup7\n      gas\n      staticcall\n      iszero\n      dup1\n      iszero\n      tag_62\n      jumpi\n      returndatasize\n      0x00\n      dup1\n      returndatacopy\n      revert(0x00, returndatasize)\n    tag_62:\n      pop\n      pop\n      pop\n      pop\n      mload(0x40)\n      returndatasize\n      not(0x1f)\n      0x1f\n      dup3\n      add\n      and\n      dup3\n      add\n      dup1\n      0x40\n      mstore\n      pop\n      dup2\n      add\n      swap1\n      tag_63\n      swap2\n      swap1\n      tag_64\n      jump\t// in\n    tag_63:\n        /* \"contracts/PriceConverter.sol\":371:422  (, int256 price, , ,) = priceFeed.latestRoundData() */\n      pop\n      pop\n      pop\n      swap2\n      pop\n      pop\n        /* \"contracts/PriceConverter.sol\":455:459  1e10 */\n      0x02540be400\n        /* \"contracts/PriceConverter.sol\":447:452  price */\n      dup2\n        /* \"contracts/PriceConverter.sol\":447:459  price * 1e10 */\n      tag_65\n      swap2\n      swap1\n      tag_66\n      jump\t// in\n    tag_65:\n        /* \"contracts/PriceConverter.sol\":432:460  return uint256(price * 1e10) */\n      swap3\n      pop\n      pop\n      pop\n        /* \"contracts/PriceConverter.sol\":201:467  function getPrice() internal view returns(uint256) {... */\n      swap1\n      jump\t// out\n    tag_35:\n      dup3\n      dup1\n      sload\n      dup3\n      dup3\n      sstore\n      swap1\n      0x00\n      mstore\n      keccak256(0x00, 0x20)\n      swap1\n      dup2\n      add\n      swap3\n      dup3\n      iszero\n      tag_67\n      jumpi\n      swap2\n      0x20\n      mul\n      dup3\n      add\n    tag_68:\n      dup3\n      dup2\n      gt\n      iszero\n      tag_69\n      jumpi\n      dup3\n      mload\n      dup3\n      exp(0x0100, 0x00)\n      dup2\n      sload\n      dup2\n      0xffffffffffffffffffffffffffffffffffffffff\n      mul\n      not\n      and\n      swap1\n      dup4\n      0xffffffffffffffffffffffffffffffffffffffff\n      and\n      mul\n      or\n      swap1\n      sstore\n      pop\n      swap2\n      0x20\n      add\n      swap2\n      swap1\n      0x01\n      add\n      swap1\n      jump(tag_68)\n    tag_69:\n    tag_67:\n      pop\n      swap1\n      pop\n      tag_70\n      swap2\n      swap1\n      tag_71\n      jump\t// in\n    tag_70:\n      pop\n      swap1\n      jump\t// out\n    tag_71:\n    tag_72:\n      dup1\n      dup3\n      gt\n      iszero\n      tag_73\n      jumpi\n      0x00\n      dup2\n      0x00\n      swap1\n      sstore\n      pop\n      0x01\n      add\n      jump(tag_72)\n    tag_73:\n      pop\n      swap1\n      jump\t// out\n        /* \"#utility.yul\":7:84   */\n    tag_74:\n        /* \"#utility.yul\":44:51   */\n      0x00\n        /* \"#utility.yul\":73:78   */\n      dup2\n        /* \"#utility.yul\":62:78   */\n      swap1\n      pop\n        /* \"#utility.yul\":7:84   */\n      swap2\n      swap1\n      pop\n      jump\t// out\n        /* \"#utility.yul\":90:208   */\n    tag_75:\n        /* \"#utility.yul\":177:201   */\n      tag_104\n        /* \"#utility.yul\":195:200   */\n      dup2\n        /* \"#utility.yul\":177:201   */\n      tag_74\n      jump\t// in\n    tag_104:\n        /* \"#utility.yul\":172:175   */\n      dup3\n        /* \"#utility.yul\":165:202   */\n      mstore\n        /* \"#utility.yul\":90:208   */\n      pop\n      pop\n      jump\t// out\n        /* \"#utility.yul\":214:436   */\n    tag_10:\n        /* \"#utility.yul\":307:311   */\n      0x00\n        /* \"#utility.yul\":345:347   */\n      0x20\n        /* \"#utility.yul\":334:343   */\n      dup3\n        /* \"#utility.yul\":330:348   */\n      add\n        /* \"#utility.yul\":322:348   */\n      swap1\n      pop\n        /* \"#utility.yul\":358:429   */\n      tag_106\n        /* \"#utility.yul\":426:427   */\n      0x00\n        /* \"#utility.yul\":415:424   */\n      dup4\n        /* \"#utility.yul\":411:428   */\n      add\n        /* \"#utility.yul\":402:408   */\n      dup5\n        /* \"#utility.yul\":358:429   */\n      tag_75\n      jump\t// in\n    tag_106:\n        /* \"#utility.yul\":214:436   */\n      swap3\n      swap2\n      pop\n      pop\n      jump\t// out\n        /* \"#utility.yul\":523:640   */\n    tag_77:\n        /* \"#utility.yul\":632:633   */\n      0x00\n        /* \"#utility.yul\":629:630   */\n      dup1\n        /* \"#utility.yul\":622:634   */\n      revert\n        /* \"#utility.yul\":769:895   */\n    tag_79:\n        /* \"#utility.yul\":806:813   */\n      0x00\n        /* \"#utility.yul\":846:888   */\n      0xffffffffffffffffffffffffffffffffffffffff\n        /* \"#utility.yul\":839:844   */\n      dup3\n        /* \"#utility.yul\":835:889   */\n      and\n        /* \"#utility.yul\":824:889   */\n      swap1\n      pop\n        /* \"#utility.yul\":769:895   */\n      swap2\n      swap1\n      pop\n      jump\t// out\n        /* \"#utility.yul\":901:997   */\n    tag_80:\n        /* \"#utility.yul\":938:945   */\n      0x00\n        /* \"#utility.yul\":967:991   */\n      tag_112\n        /* \"#utility.yul\":985:990   */\n      dup3\n        /* \"#utility.yul\":967:991   */\n      tag_79\n      jump\t// in\n    tag_112:\n        /* \"#utility.yul\":956:991   */\n      swap1\n      pop\n        /* \"#utility.yul\":901:997   */\n      swap2\n      swap1\n      pop\n      jump\t// out\n        /* \"#utility.yul\":1003:1125   */\n    tag_81:\n        /* \"#utility.yul\":1076:1100   */\n      tag_114\n        /* \"#utility.yul\":1094:1099   */\n      dup2\n        /* \"#utility.yul\":1076:1100   */\n      tag_80\n      jump\t// in\n    tag_114:\n        /* \"#utility.yul\":1069:1074   */\n      dup2\n        /* \"#utility.yul\":1066:1101   */\n      eq\n        /* \"#utility.yul\":1056:1119   */\n      tag_115\n      jumpi\n        /* \"#utility.yul\":1115:1116   */\n      0x00\n        /* \"#utility.yul\":1112:1113   */\n      dup1\n        /* \"#utility.yul\":1105:1117   */\n      revert\n        /* \"#utility.yul\":1056:1119   */\n    tag_115:\n        /* \"#utility.yul\":1003:1125   */\n      pop\n      jump\t// out\n        /* \"#utility.yul\":1131:1270   */\n    tag_82:\n        /* \"#utility.yul\":1177:1182   */\n      0x00\n        /* \"#utility.yul\":1215:1221   */\n      dup2\n        /* \"#utility.yul\":1202:1222   */\n      calldataload\n        /* \"#utility.yul\":1193:1222   */\n      swap1\n      pop\n        /* \"#utility.yul\":1231:1264   */\n      tag_117\n        /* \"#utility.yul\":1258:1263   */\n      dup2\n        /* \"#utility.yul\":1231:1264   */\n      tag_81\n      jump\t// in\n    tag_117:\n        /* \"#utility.yul\":1131:1270   */\n      swap3\n      swap2\n      pop\n      pop\n      jump\t// out\n        /* \"#utility.yul\":1276:1605   */\n    tag_17:\n        /* \"#utility.yul\":1335:1341   */\n      0x00\n        /* \"#utility.yul\":1384:1386   */\n      0x20\n        /* \"#utility.yul\":1372:1381   */\n      dup3\n        /* \"#utility.yul\":1363:1370   */\n      dup5\n        /* \"#utility.yul\":1359:1382   */\n      sub\n        /* \"#utility.yul\":1355:1387   */\n      slt\n        /* \"#utility.yul\":1352:1471   */\n      iszero\n      tag_119\n      jumpi\n        /* \"#utility.yul\":1390:1469   */\n      tag_120\n      tag_77\n      jump\t// in\n    tag_120:\n        /* \"#utility.yul\":1352:1471   */\n    tag_119:\n        /* \"#utility.yul\":1510:1511   */\n      0x00\n        /* \"#utility.yul\":1535:1588   */\n      tag_121\n        /* \"#utility.yul\":1580:1587   */\n      dup5\n        /* \"#utility.yul\":1571:1577   */\n      dup3\n        /* \"#utility.yul\":1560:1569   */\n      dup6\n        /* \"#utility.yul\":1556:1578   */\n      add\n        /* \"#utility.yul\":1535:1588   */\n      tag_82\n      jump\t// in\n    tag_121:\n        /* \"#utility.yul\":1525:1588   */\n      swap2\n      pop\n        /* \"#utility.yul\":1481:1598   */\n      pop\n        /* \"#utility.yul\":1276:1605   */\n      swap3\n      swap2\n      pop\n      pop\n      jump\t// out\n        /* \"#utility.yul\":1611:1791   */\n    tag_28:\n        /* \"#utility.yul\":1659:1736   */\n      0x4e487b7100000000000000000000000000000000000000000000000000000000\n        /* \"#utility.yul\":1656:1657   */\n      0x00\n        /* \"#utility.yul\":1649:1737   */\n      mstore\n        /* \"#utility.yul\":1756:1760   */\n      0x32\n        /* \"#utility.yul\":1753:1754   */\n      0x04\n        /* \"#utility.yul\":1746:1761   */\n      mstore\n        /* \"#utility.yul\":1780:1784   */\n      0x24\n        /* \"#utility.yul\":1777:1778   */\n      0x00\n        /* \"#utility.yul\":1770:1785   */\n      revert\n        /* \"#utility.yul\":1797:1977   */\n    tag_32:\n        /* \"#utility.yul\":1845:1922   */\n      0x4e487b7100000000000000000000000000000000000000000000000000000000\n        /* \"#utility.yul\":1842:1843   */\n      0x00\n        /* \"#utility.yul\":1835:1923   */\n      mstore\n        /* \"#utility.yul\":1942:1946   */\n      0x41\n        /* \"#utility.yul\":1939:1940   */\n      0x04\n        /* \"#utility.yul\":1932:1947   */\n      mstore\n        /* \"#utility.yul\":1966:1970   */\n      0x24\n        /* \"#utility.yul\":1963:1964   */\n      0x00\n        /* \"#utility.yul\":1956:1971   */\n      revert\n        /* \"#utility.yul\":1983:2130   */\n    tag_83:\n        /* \"#utility.yul\":2084:2095   */\n      0x00\n        /* \"#utility.yul\":2121:2124   */\n      dup2\n        /* \"#utility.yul\":2106:2124   */\n      swap1\n      pop\n        /* \"#utility.yul\":1983:2130   */\n      swap3\n      swap2\n      pop\n      pop\n      jump\t// out\n        /* \"#utility.yul\":2136:2250   */\n    tag_84:\n      pop\n      jump\t// out\n        /* \"#utility.yul\":2256:2654   */\n    tag_85:\n        /* \"#utility.yul\":2415:2418   */\n      0x00\n        /* \"#utility.yul\":2436:2519   */\n      tag_127\n        /* \"#utility.yul\":2517:2518   */\n      0x00\n        /* \"#utility.yul\":2512:2515   */\n      dup4\n        /* \"#utility.yul\":2436:2519   */\n      tag_83\n      jump\t// in\n    tag_127:\n        /* \"#utility.yul\":2429:2519   */\n      swap2\n      pop\n        /* \"#utility.yul\":2528:2621   */\n      tag_128\n        /* \"#utility.yul\":2617:2620   */\n      dup3\n        /* \"#utility.yul\":2528:2621   */\n      tag_84\n      jump\t// in\n    tag_128:\n        /* \"#utility.yul\":2646:2647   */\n      0x00\n        /* \"#utility.yul\":2641:2644   */\n      dup3\n        /* \"#utility.yul\":2637:2648   */\n      add\n        /* \"#utility.yul\":2630:2648   */\n      swap1\n      pop\n        /* \"#utility.yul\":2256:2654   */\n      swap2\n      swap1\n      pop\n      jump\t// out\n        /* \"#utility.yul\":2660:3039   */\n    tag_37:\n        /* \"#utility.yul\":2844:2847   */\n      0x00\n        /* \"#utility.yul\":2866:3013   */\n      tag_130\n        /* \"#utility.yul\":3009:3012   */\n      dup3\n        /* \"#utility.yul\":2866:3013   */\n      tag_85\n      jump\t// in\n    tag_130:\n        /* \"#utility.yul\":2859:3013   */\n      swap2\n      pop\n        /* \"#utility.yul\":3030:3033   */\n      dup2\n        /* \"#utility.yul\":3023:3033   */\n      swap1\n      pop\n        /* \"#utility.yul\":2660:3039   */\n      swap2\n      swap1\n      pop\n      jump\t// out\n        /* \"#utility.yul\":3045:3214   */\n    tag_86:\n        /* \"#utility.yul\":3129:3140   */\n      0x00\n        /* \"#utility.yul\":3163:3169   */\n      dup3\n        /* \"#utility.yul\":3158:3161   */\n      dup3\n        /* \"#utility.yul\":3151:3170   */\n      mstore\n        /* \"#utility.yul\":3203:3207   */\n      0x20\n        /* \"#utility.yul\":3198:3201   */\n      dup3\n        /* \"#utility.yul\":3194:3208   */\n      add\n        /* \"#utility.yul\":3179:3208   */\n      swap1\n      pop\n        /* \"#utility.yul\":3045:3214   */\n      swap3\n      swap2\n      pop\n      pop\n      jump\t// out\n        /* \"#utility.yul\":3220:3381   */\n    tag_87:\n        /* \"#utility.yul\":3360:3373   */\n      0x63616c6c206661696c6564000000000000000000000000000000000000000000\n        /* \"#utility.yul\":3356:3357   */\n      0x00\n        /* \"#utility.yul\":3348:3354   */\n      dup3\n        /* \"#utility.yul\":3344:3358   */\n      add\n        /* \"#utility.yul\":3337:3374   */\n      mstore\n        /* \"#utility.yul\":3220:3381   */\n      pop\n      jump\t// out\n        /* \"#utility.yul\":3387:3753   */\n    tag_88:\n        /* \"#utility.yul\":3529:3532   */\n      0x00\n        /* \"#utility.yul\":3550:3617   */\n      tag_134\n        /* \"#utility.yul\":3614:3616   */\n      0x0b\n        /* \"#utility.yul\":3609:3612   */\n      dup4\n        /* \"#utility.yul\":3550:3617   */\n      tag_86\n      jump\t// in\n    tag_134:\n        /* \"#utility.yul\":3543:3617   */\n      swap2\n      pop\n        /* \"#utility.yul\":3626:3719   */\n      tag_135\n        /* \"#utility.yul\":3715:3718   */\n      dup3\n        /* \"#utility.yul\":3626:3719   */\n      tag_87\n      jump\t// in\n    tag_135:\n        /* \"#utility.yul\":3744:3746   */\n      0x20\n        /* \"#utility.yul\":3739:3742   */\n      dup3\n        /* \"#utility.yul\":3735:3747   */\n      add\n        /* \"#utility.yul\":3728:3747   */\n      swap1\n      pop\n        /* \"#utility.yul\":3387:3753   */\n      swap2\n      swap1\n      pop\n      jump\t// out\n        /* \"#utility.yul\":3759:4178   */\n    tag_43:\n        /* \"#utility.yul\":3925:3929   */\n      0x00\n        /* \"#utility.yul\":3963:3965   */\n      0x20\n        /* \"#utility.yul\":3952:3961   */\n      dup3\n        /* \"#utility.yul\":3948:3966   */\n      add\n        /* \"#utility.yul\":3940:3966   */\n      swap1\n      pop\n        /* \"#utility.yul\":4012:4021   */\n      dup2\n        /* \"#utility.yul\":4006:4010   */\n      dup2\n        /* \"#utility.yul\":4002:4022   */\n      sub\n        /* \"#utility.yul\":3998:3999   */\n      0x00\n        /* \"#utility.yul\":3987:3996   */\n      dup4\n        /* \"#utility.yul\":3983:4000   */\n      add\n        /* \"#utility.yul\":3976:4023   */\n      mstore\n        /* \"#utility.yul\":4040:4171   */\n      tag_137\n        /* \"#utility.yul\":4166:4170   */\n      dup2\n        /* \"#utility.yul\":4040:4171   */\n      tag_88\n      jump\t// in\n    tag_137:\n        /* \"#utility.yul\":4032:4171   */\n      swap1\n      pop\n        /* \"#utility.yul\":3759:4178   */\n      swap2\n      swap1\n      pop\n      jump\t// out\n        /* \"#utility.yul\":4184:4356   */\n    tag_89:\n        /* \"#utility.yul\":4324:4348   */\n      0x6469646e27742073656e6420656e6f7567682045544800000000000000000000\n        /* \"#utility.yul\":4320:4321   */\n      0x00\n        /* \"#utility.yul\":4312:4318   */\n      dup3\n        /* \"#utility.yul\":4308:4322   */\n      add\n        /* \"#utility.yul\":4301:4349   */\n      mstore\n        /* \"#utility.yul\":4184:4356   */\n      pop\n      jump\t// out\n        /* \"#utility.yul\":4362:4728   */\n    tag_90:\n        /* \"#utility.yul\":4504:4507   */\n      0x00\n        /* \"#utility.yul\":4525:4592   */\n      tag_140\n        /* \"#utility.yul\":4589:4591   */\n      0x16\n        /* \"#utility.yul\":4584:4587   */\n      dup4\n        /* \"#utility.yul\":4525:4592   */\n      tag_86\n      jump\t// in\n    tag_140:\n        /* \"#utility.yul\":4518:4592   */\n      swap2\n      pop\n        /* \"#utility.yul\":4601:4694   */\n      tag_141\n        /* \"#utility.yul\":4690:4693   */\n      dup3\n        /* \"#utility.yul\":4601:4694   */\n      tag_89\n      jump\t// in\n    tag_141:\n        /* \"#utility.yul\":4719:4721   */\n      0x20\n        /* \"#utility.yul\":4714:4717   */\n      dup3\n        /* \"#utility.yul\":4710:4722   */\n      add\n        /* \"#utility.yul\":4703:4722   */\n      swap1\n      pop\n        /* \"#utility.yul\":4362:4728   */\n      swap2\n      swap1\n      pop\n      jump\t// out\n        /* \"#utility.yul\":4734:5153   */\n    tag_49:\n        /* \"#utility.yul\":4900:4904   */\n      0x00\n        /* \"#utility.yul\":4938:4940   */\n      0x20\n        /* \"#utility.yul\":4927:4936   */\n      dup3\n        /* \"#utility.yul\":4923:4941   */\n      add\n        /* \"#utility.yul\":4915:4941   */\n      swap1\n      pop\n        /* \"#utility.yul\":4987:4996   */\n      dup2\n        /* \"#utility.yul\":4981:4985   */\n      dup2\n        /* \"#utility.yul\":4977:4997   */\n      sub\n        /* \"#utility.yul\":4973:4974   */\n      0x00\n        /* \"#utility.yul\":4962:4971   */\n      dup4\n        /* \"#utility.yul\":4958:4975   */\n      add\n        /* \"#utility.yul\":4951:4998   */\n      mstore\n        /* \"#utility.yul\":5015:5146   */\n      tag_143\n        /* \"#utility.yul\":5141:5145   */\n      dup2\n        /* \"#utility.yul\":5015:5146   */\n      tag_90\n      jump\t// in\n    tag_143:\n        /* \"#utility.yul\":5007:5146   */\n      swap1\n      pop\n        /* \"#utility.yul\":4734:5153   */\n      swap2\n      swap1\n      pop\n      jump\t// out\n        /* \"#utility.yul\":5159:5339   */\n    tag_91:\n        /* \"#utility.yul\":5207:5284   */\n      0x4e487b7100000000000000000000000000000000000000000000000000000000\n        /* \"#utility.yul\":5204:5205   */\n      0x00\n        /* \"#utility.yul\":5197:5285   */\n      mstore\n        /* \"#utility.yul\":5304:5308   */\n      0x11\n        /* \"#utility.yul\":5301:5302   */\n      0x04\n        /* \"#utility.yul\":5294:5309   */\n      mstore\n        /* \"#utility.yul\":5328:5332   */\n      0x24\n        /* \"#utility.yul\":5325:5326   */\n      0x00\n        /* \"#utility.yul\":5318:5333   */\n      revert\n        /* \"#utility.yul\":5345:5536   */\n    tag_52:\n        /* \"#utility.yul\":5385:5388   */\n      0x00\n        /* \"#utility.yul\":5404:5424   */\n      tag_146\n        /* \"#utility.yul\":5422:5423   */\n      dup3\n        /* \"#utility.yul\":5404:5424   */\n      tag_74\n      jump\t// in\n    tag_146:\n        /* \"#utility.yul\":5399:5424   */\n      swap2\n      pop\n        /* \"#utility.yul\":5438:5458   */\n      tag_147\n        /* \"#utility.yul\":5456:5457   */\n      dup4\n        /* \"#utility.yul\":5438:5458   */\n      tag_74\n      jump\t// in\n    tag_147:\n        /* \"#utility.yul\":5433:5458   */\n      swap3\n      pop\n        /* \"#utility.yul\":5481:5482   */\n      dup3\n        /* \"#utility.yul\":5478:5479   */\n      dup3\n        /* \"#utility.yul\":5474:5483   */\n      add\n        /* \"#utility.yul\":5467:5483   */\n      swap1\n      pop\n        /* \"#utility.yul\":5502:5505   */\n      dup1\n        /* \"#utility.yul\":5499:5500   */\n      dup3\n        /* \"#utility.yul\":5496:5506   */\n      gt\n        /* \"#utility.yul\":5493:5529   */\n      iszero\n      tag_148\n      jumpi\n        /* \"#utility.yul\":5509:5527   */\n      tag_149\n      tag_91\n      jump\t// in\n    tag_149:\n        /* \"#utility.yul\":5493:5529   */\n    tag_148:\n        /* \"#utility.yul\":5345:5536   */\n      swap3\n      swap2\n      pop\n      pop\n      jump\t// out\n        /* \"#utility.yul\":5542:5952   */\n    tag_57:\n        /* \"#utility.yul\":5582:5589   */\n      0x00\n        /* \"#utility.yul\":5605:5625   */\n      tag_151\n        /* \"#utility.yul\":5623:5624   */\n      dup3\n        /* \"#utility.yul\":5605:5625   */\n      tag_74\n      jump\t// in\n    tag_151:\n        /* \"#utility.yul\":5600:5625   */\n      swap2\n      pop\n        /* \"#utility.yul\":5639:5659   */\n      tag_152\n        /* \"#utility.yul\":5657:5658   */\n      dup4\n        /* \"#utility.yul\":5639:5659   */\n      tag_74\n      jump\t// in\n    tag_152:\n        /* \"#utility.yul\":5634:5659   */\n      swap3\n      pop\n        /* \"#utility.yul\":5694:5695   */\n      dup3\n        /* \"#utility.yul\":5691:5692   */\n      dup3\n        /* \"#utility.yul\":5687:5696   */\n      mul\n        /* \"#utility.yul\":5716:5746   */\n      tag_153\n        /* \"#utility.yul\":5734:5745   */\n      dup2\n        /* \"#utility.yul\":5716:5746   */\n      tag_74\n      jump\t// in\n    tag_153:\n        /* \"#utility.yul\":5705:5746   */\n      swap2\n      pop\n        /* \"#utility.yul\":5895:5896   */\n      dup3\n        /* \"#utility.yul\":5886:5893   */\n      dup3\n        /* \"#utility.yul\":5882:5897   */\n      div\n        /* \"#utility.yul\":5879:5880   */\n      dup5\n        /* \"#utility.yul\":5876:5898   */\n      eq\n        /* \"#utility.yul\":5856:5857   */\n      dup4\n        /* \"#utility.yul\":5849:5858   */\n      iszero\n        /* \"#utility.yul\":5829:5912   */\n      or\n        /* \"#utility.yul\":5806:5945   */\n      tag_154\n      jumpi\n        /* \"#utility.yul\":5925:5943   */\n      tag_155\n      tag_91\n      jump\t// in\n    tag_155:\n        /* \"#utility.yul\":5806:5945   */\n    tag_154:\n        /* \"#utility.yul\":5590:5952   */\n      pop\n        /* \"#utility.yul\":5542:5952   */\n      swap3\n      swap2\n      pop\n      pop\n      jump\t// out\n        /* \"#utility.yul\":5958:6138   */\n    tag_92:\n        /* \"#utility.yul\":6006:6083   */\n      0x4e487b7100000000000000000000000000000000000000000000000000000000\n        /* \"#utility.yul\":6003:6004   */\n      0x00\n        /* \"#utility.yul\":5996:6084   */\n      mstore\n        /* \"#utility.yul\":6103:6107   */\n      0x12\n        /* \"#utility.yul\":6100:6101   */\n      0x04\n        /* \"#utility.yul\":6093:6108   */\n      mstore\n        /* \"#utility.yul\":6127:6131   */\n      0x24\n        /* \"#utility.yul\":6124:6125   */\n      0x00\n        /* \"#utility.yul\":6117:6132   */\n      revert\n        /* \"#utility.yul\":6144:6329   */\n    tag_59:\n        /* \"#utility.yul\":6184:6185   */\n      0x00\n        /* \"#utility.yul\":6201:6221   */\n      tag_158\n        /* \"#utility.yul\":6219:6220   */\n      dup3\n        /* \"#utility.yul\":6201:6221   */\n      tag_74\n      jump\t// in\n    tag_158:\n        /* \"#utility.yul\":6196:6221   */\n      swap2\n      pop\n        /* \"#utility.yul\":6235:6255   */\n      tag_159\n        /* \"#utility.yul\":6253:6254   */\n      dup4\n        /* \"#utility.yul\":6235:6255   */\n      tag_74\n      jump\t// in\n    tag_159:\n        /* \"#utility.yul\":6230:6255   */\n      swap3\n      pop\n        /* \"#utility.yul\":6274:6275   */\n      dup3\n        /* \"#utility.yul\":6264:6299   */\n      tag_160\n      jumpi\n        /* \"#utility.yul\":6279:6297   */\n      tag_161\n      tag_92\n      jump\t// in\n    tag_161:\n        /* \"#utility.yul\":6264:6299   */\n    tag_160:\n        /* \"#utility.yul\":6321:6322   */\n      dup3\n        /* \"#utility.yul\":6318:6319   */\n      dup3\n        /* \"#utility.yul\":6314:6323   */\n      div\n        /* \"#utility.yul\":6309:6323   */\n      swap1\n      pop\n        /* \"#utility.yul\":6144:6329   */\n      swap3\n      swap2\n      pop\n      pop\n      jump\t// out\n        /* \"#utility.yul\":6335:6440   */\n    tag_93:\n        /* \"#utility.yul\":6371:6378   */\n      0x00\n        /* \"#utility.yul\":6411:6433   */\n      0xffffffffffffffffffff\n        /* \"#utility.yul\":6404:6409   */\n      dup3\n        /* \"#utility.yul\":6400:6434   */\n      and\n        /* \"#utility.yul\":6389:6434   */\n      swap1\n      pop\n        /* \"#utility.yul\":6335:6440   */\n      swap2\n      swap1\n      pop\n      jump\t// out\n        /* \"#utility.yul\":6446:6566   */\n    tag_94:\n        /* \"#utility.yul\":6518:6541   */\n      tag_164\n        /* \"#utility.yul\":6535:6540   */\n      dup2\n        /* \"#utility.yul\":6518:6541   */\n      tag_93\n      jump\t// in\n    tag_164:\n        /* \"#utility.yul\":6511:6516   */\n      dup2\n        /* \"#utility.yul\":6508:6542   */\n      eq\n        /* \"#utility.yul\":6498:6560   */\n      tag_165\n      jumpi\n        /* \"#utility.yul\":6556:6557   */\n      0x00\n        /* \"#utility.yul\":6553:6554   */\n      dup1\n        /* \"#utility.yul\":6546:6558   */\n      revert\n        /* \"#utility.yul\":6498:6560   */\n    tag_165:\n        /* \"#utility.yul\":6446:6566   */\n      pop\n      jump\t// out\n        /* \"#utility.yul\":6572:6713   */\n    tag_95:\n        /* \"#utility.yul\":6628:6633   */\n      0x00\n        /* \"#utility.yul\":6659:6665   */\n      dup2\n        /* \"#utility.yul\":6653:6666   */\n      mload\n        /* \"#utility.yul\":6644:6666   */\n      swap1\n      pop\n        /* \"#utility.yul\":6675:6707   */\n      tag_167\n        /* \"#utility.yul\":6701:6706   */\n      dup2\n        /* \"#utility.yul\":6675:6707   */\n      tag_94\n      jump\t// in\n    tag_167:\n        /* \"#utility.yul\":6572:6713   */\n      swap3\n      swap2\n      pop\n      pop\n      jump\t// out\n        /* \"#utility.yul\":6719:6795   */\n    tag_96:\n        /* \"#utility.yul\":6755:6762   */\n      0x00\n        /* \"#utility.yul\":6784:6789   */\n      dup2\n        /* \"#utility.yul\":6773:6789   */\n      swap1\n      pop\n        /* \"#utility.yul\":6719:6795   */\n      swap2\n      swap1\n      pop\n      jump\t// out\n        /* \"#utility.yul\":6801:6921   */\n    tag_97:\n        /* \"#utility.yul\":6873:6896   */\n      tag_170\n        /* \"#utility.yul\":6890:6895   */\n      dup2\n        /* \"#utility.yul\":6873:6896   */\n      tag_96\n      jump\t// in\n    tag_170:\n        /* \"#utility.yul\":6866:6871   */\n      dup2\n        /* \"#utility.yul\":6863:6897   */\n      eq\n        /* \"#utility.yul\":6853:6915   */\n      tag_171\n      jumpi\n        /* \"#utility.yul\":6911:6912   */\n      0x00\n        /* \"#utility.yul\":6908:6909   */\n      dup1\n        /* \"#utility.yul\":6901:6913   */\n      revert\n        /* \"#utility.yul\":6853:6915   */\n    tag_171:\n        /* \"#utility.yul\":6801:6921   */\n      pop\n      jump\t// out\n        /* \"#utility.yul\":6927:7068   */\n    tag_98:\n        /* \"#utility.yul\":6983:6988   */\n      0x00\n        /* \"#utility.yul\":7014:7020   */\n      dup2\n        /* \"#utility.yul\":7008:7021   */\n      mload\n        /* \"#utility.yul\":6999:7021   */\n      swap1\n      pop\n        /* \"#utility.yul\":7030:7062   */\n      tag_173\n        /* \"#utility.yul\":7056:7061   */\n      dup2\n        /* \"#utility.yul\":7030:7062   */\n      tag_97\n      jump\t// in\n    tag_173:\n        /* \"#utility.yul\":6927:7068   */\n      swap3\n      swap2\n      pop\n      pop\n      jump\t// out\n        /* \"#utility.yul\":7074:7196   */\n    tag_99:\n        /* \"#utility.yul\":7147:7171   */\n      tag_175\n        /* \"#utility.yul\":7165:7170   */\n      dup2\n        /* \"#utility.yul\":7147:7171   */\n      tag_74\n      jump\t// in\n    tag_175:\n        /* \"#utility.yul\":7140:7145   */\n      dup2\n        /* \"#utility.yul\":7137:7172   */\n      eq\n        /* \"#utility.yul\":7127:7190   */\n      tag_176\n      jumpi\n        /* \"#utility.yul\":7186:7187   */\n      0x00\n        /* \"#utility.yul\":7183:7184   */\n      dup1\n        /* \"#utility.yul\":7176:7188   */\n      revert\n        /* \"#utility.yul\":7127:7190   */\n    tag_176:\n        /* \"#utility.yul\":7074:7196   */\n      pop\n      jump\t// out\n        /* \"#utility.yul\":7202:7345   */\n    tag_100:\n        /* \"#utility.yul\":7259:7264   */\n      0x00\n        /* \"#utility.yul\":7290:7296   */\n      dup2\n        /* \"#utility.yul\":7284:7297   */\n      mload\n        /* \"#utility.yul\":7275:7297   */\n      swap1\n      pop\n        /* \"#utility.yul\":7306:7339   */\n      tag_178\n        /* \"#utility.yul\":7333:7338   */\n      dup2\n        /* \"#utility.yul\":7306:7339   */\n      tag_99\n      jump\t// in\n    tag_178:\n        /* \"#utility.yul\":7202:7345   */\n      swap3\n      swap2\n      pop\n      pop\n      jump\t// out\n        /* \"#utility.yul\":7351:8322   */\n    tag_64:\n        /* \"#utility.yul\":7454:7460   */\n      0x00\n        /* \"#utility.yul\":7462:7468   */\n      dup1\n        /* \"#utility.yul\":7470:7476   */\n      0x00\n        /* \"#utility.yul\":7478:7484   */\n      dup1\n        /* \"#utility.yul\":7486:7492   */\n      0x00\n        /* \"#utility.yul\":7535:7538   */\n      0xa0\n        /* \"#utility.yul\":7523:7532   */\n      dup7\n        /* \"#utility.yul\":7514:7521   */\n      dup9\n        /* \"#utility.yul\":7510:7533   */\n      sub\n        /* \"#utility.yul\":7506:7539   */\n      slt\n        /* \"#utility.yul\":7503:7623   */\n      iszero\n      tag_180\n      jumpi\n        /* \"#utility.yul\":7542:7621   */\n      tag_181\n      tag_77\n      jump\t// in\n    tag_181:\n        /* \"#utility.yul\":7503:7623   */\n    tag_180:\n        /* \"#utility.yul\":7662:7663   */\n      0x00\n        /* \"#utility.yul\":7687:7750   */\n      tag_182\n        /* \"#utility.yul\":7742:7749   */\n      dup9\n        /* \"#utility.yul\":7733:7739   */\n      dup3\n        /* \"#utility.yul\":7722:7731   */\n      dup10\n        /* \"#utility.yul\":7718:7740   */\n      add\n        /* \"#utility.yul\":7687:7750   */\n      tag_95\n      jump\t// in\n    tag_182:\n        /* \"#utility.yul\":7677:7750   */\n      swap6\n      pop\n        /* \"#utility.yul\":7633:7760   */\n      pop\n        /* \"#utility.yul\":7799:7801   */\n      0x20\n        /* \"#utility.yul\":7825:7888   */\n      tag_183\n        /* \"#utility.yul\":7880:7887   */\n      dup9\n        /* \"#utility.yul\":7871:7877   */\n      dup3\n        /* \"#utility.yul\":7860:7869   */\n      dup10\n        /* \"#utility.yul\":7856:7878   */\n      add\n        /* \"#utility.yul\":7825:7888   */\n      tag_98\n      jump\t// in\n    tag_183:\n        /* \"#utility.yul\":7815:7888   */\n      swap5\n      pop\n        /* \"#utility.yul\":7770:7898   */\n      pop\n        /* \"#utility.yul\":7937:7939   */\n      0x40\n        /* \"#utility.yul\":7963:8027   */\n      tag_184\n        /* \"#utility.yul\":8019:8026   */\n      dup9\n        /* \"#utility.yul\":8010:8016   */\n      dup3\n        /* \"#utility.yul\":7999:8008   */\n      dup10\n        /* \"#utility.yul\":7995:8017   */\n      add\n        /* \"#utility.yul\":7963:8027   */\n      tag_100\n      jump\t// in\n    tag_184:\n        /* \"#utility.yul\":7953:8027   */\n      swap4\n      pop\n        /* \"#utility.yul\":7908:8037   */\n      pop\n        /* \"#utility.yul\":8076:8078   */\n      0x60\n        /* \"#utility.yul\":8102:8166   */\n      tag_185\n        /* \"#utility.yul\":8158:8165   */\n      dup9\n        /* \"#utility.yul\":8149:8155   */\n      dup3\n        /* \"#utility.yul\":8138:8147   */\n      dup10\n        /* \"#utility.yul\":8134:8156   */\n      add\n        /* \"#utility.yul\":8102:8166   */\n      tag_100\n      jump\t// in\n    tag_185:\n        /* \"#utility.yul\":8092:8166   */\n      swap3\n      pop\n        /* \"#utility.yul\":8047:8176   */\n      pop\n        /* \"#utility.yul\":8215:8218   */\n      0x80\n        /* \"#utility.yul\":8242:8305   */\n      tag_186\n        /* \"#utility.yul\":8297:8304   */\n      dup9\n        /* \"#utility.yul\":8288:8294   */\n      dup3\n        /* \"#utility.yul\":8277:8286   */\n      dup10\n        /* \"#utility.yul\":8273:8295   */\n      add\n        /* \"#utility.yul\":8242:8305   */\n      tag_95\n      jump\t// in\n    tag_186:\n        /* \"#utility.yul\":8232:8305   */\n      swap2\n      pop\n        /* \"#utility.yul\":8186:8315   */\n      pop\n        /* \"#utility.yul\":7351:8322   */\n      swap3\n      swap6\n      pop\n      swap3\n      swap6\n      swap1\n      swap4\n      pop\n      jump\t// out\n        /* \"#utility.yul\":8328:8884   */\n    tag_66:\n        /* \"#utility.yul\":8367:8374   */\n      0x00\n        /* \"#utility.yul\":8390:8409   */\n      tag_188\n        /* \"#utility.yul\":8407:8408   */\n      dup3\n        /* \"#utility.yul\":8390:8409   */\n      tag_96\n      jump\t// in\n    tag_188:\n        /* \"#utility.yul\":8385:8409   */\n      swap2\n      pop\n        /* \"#utility.yul\":8423:8442   */\n      tag_189\n        /* \"#utility.yul\":8440:8441   */\n      dup4\n        /* \"#utility.yul\":8423:8442   */\n      tag_96\n      jump\t// in\n    tag_189:\n        /* \"#utility.yul\":8418:8442   */\n      swap3\n      pop\n        /* \"#utility.yul\":8477:8478   */\n      dup3\n        /* \"#utility.yul\":8474:8475   */\n      dup3\n        /* \"#utility.yul\":8470:8479   */\n      mul\n        /* \"#utility.yul\":8499:8528   */\n      tag_190\n        /* \"#utility.yul\":8516:8527   */\n      dup2\n        /* \"#utility.yul\":8499:8528   */\n      tag_96\n      jump\t// in\n    tag_190:\n        /* \"#utility.yul\":8488:8528   */\n      swap2\n      pop\n        /* \"#utility.yul\":8586:8652   */\n      0x8000000000000000000000000000000000000000000000000000000000000000\n        /* \"#utility.yul\":8583:8584   */\n      dup5\n        /* \"#utility.yul\":8580:8653   */\n      eq\n        /* \"#utility.yul\":8576:8577   */\n      0x00\n        /* \"#utility.yul\":8573:8574   */\n      dup5\n        /* \"#utility.yul\":8569:8578   */\n      slt\n        /* \"#utility.yul\":8565:8654   */\n      and\n        /* \"#utility.yul\":8562:8677   */\n      iszero\n      tag_191\n      jumpi\n        /* \"#utility.yul\":8657:8675   */\n      tag_192\n      tag_91\n      jump\t// in\n    tag_192:\n        /* \"#utility.yul\":8562:8677   */\n    tag_191:\n        /* \"#utility.yul\":8827:8828   */\n      dup3\n        /* \"#utility.yul\":8818:8825   */\n      dup3\n        /* \"#utility.yul\":8813:8829   */\n      sdiv\n        /* \"#utility.yul\":8810:8811   */\n      dup5\n        /* \"#utility.yul\":8807:8830   */\n      eq\n        /* \"#utility.yul\":8787:8788   */\n      dup4\n        /* \"#utility.yul\":8780:8789   */\n      iszero\n        /* \"#utility.yul\":8760:8844   */\n      or\n        /* \"#utility.yul\":8737:8877   */\n      tag_193\n      jumpi\n        /* \"#utility.yul\":8857:8875   */\n      tag_194\n      tag_91\n      jump\t// in\n    tag_194:\n        /* \"#utility.yul\":8737:8877   */\n    tag_193:\n        /* \"#utility.yul\":8375:8884   */\n      pop\n        /* \"#utility.yul\":8328:8884   */\n      swap3\n      swap2\n      pop\n      pop\n      jump\t// out\n\n    auxdata: 0xa26469706673582212208fada5c17711a65af1d801e39af3ff70618e1018ca5094c4590cdba3e3605bb364736f6c634300081a0033\n}\n",
				"bytecode": {
					"linkReferences": {},
					"object": "6080604052674563918244f400005f553480156019575f80fd5b506109fd806100275f395ff3fe60806040526004361061003e575f3560e01c8063098de820146100425780633ccfd60b1461006c5780633e47d6f314610082578063b60d4288146100be575b5f80fd5b34801561004d575f80fd5b506100566100c8565b6040516100639190610523565b60405180910390f35b348015610077575f80fd5b506100806100cd565b005b34801561008d575f80fd5b506100a860048036038101906100a3919061059a565b610276565b6040516100b59190610523565b60405180910390f35b6100c661028b565b005b5f5481565b5f5b60018054905081101561016b575f600182815481106100f1576100f06105c5565b5b905f5260205f20015f9054906101000a900473ffffffffffffffffffffffffffffffffffffffff1690505f60025f8373ffffffffffffffffffffffffffffffffffffffff1673ffffffffffffffffffffffffffffffffffffffff1681526020019081526020015f20819055505080806001019150506100cf565b505f67ffffffffffffffff811115610186576101856105f2565b5b6040519080825280602002602001820160405280156101b45781602001602082028036833780820191505090505b50600190805190602001906101ca929190610469565b505f3373ffffffffffffffffffffffffffffffffffffffff16476040516101f09061064c565b5f6040518083038185875af1925050503d805f811461022a576040519150601f19603f3d011682016040523d82523d5f602084013e61022f565b606091505b5050905080610273576040517f08c379a000000000000000000000000000000000000000000000000000000000815260040161026a906106ba565b60405180910390fd5b50565b6002602052805f5260405f205f915090505481565b5f546102963461038c565b10156102d7576040517f08c379a00000000000000000000000000000000000000000000000000000000081526004016102ce90610722565b60405180910390fd5b600133908060018154018082558091505060019003905f5260205f20015f9091909190916101000a81548173ffffffffffffffffffffffffffffffffffffffff021916908373ffffffffffffffffffffffffffffffffffffffff1602179055503460025f3373ffffffffffffffffffffffffffffffffffffffff1673ffffffffffffffffffffffffffffffffffffffff1681526020019081526020015f205f828254610383919061076d565b92505081905550565b5f806103966103c4565b90505f670de0b6b3a764000084836103ae91906107a0565b6103b8919061080e565b90508092505050919050565b5f80735f4ec3df9cbd43714fe2740f5e3616155c5b841990505f8173ffffffffffffffffffffffffffffffffffffffff1663feaf968c6040518163ffffffff1660e01b815260040160a060405180830381865afa158015610427573d5f803e3d5ffd5b505050506040513d601f19601f8201168201806040525081019061044b91906108da565b5050509150506402540be400816104629190610951565b9250505090565b828054828255905f5260205f209081019282156104df579160200282015b828111156104de578251825f6101000a81548173ffffffffffffffffffffffffffffffffffffffff021916908373ffffffffffffffffffffffffffffffffffffffff16021790555091602001919060010190610487565b5b5090506104ec91906104f0565b5090565b5b80821115610507575f815f9055506001016104f1565b5090565b5f819050919050565b61051d8161050b565b82525050565b5f6020820190506105365f830184610514565b92915050565b5f80fd5b5f73ffffffffffffffffffffffffffffffffffffffff82169050919050565b5f61056982610540565b9050919050565b6105798161055f565b8114610583575f80fd5b50565b5f8135905061059481610570565b92915050565b5f602082840312156105af576105ae61053c565b5b5f6105bc84828501610586565b91505092915050565b7f4e487b71000000000000000000000000000000000000000000000000000000005f52603260045260245ffd5b7f4e487b71000000000000000000000000000000000000000000000000000000005f52604160045260245ffd5b5f81905092915050565b50565b5f6106375f8361061f565b915061064282610629565b5f82019050919050565b5f6106568261062c565b9150819050919050565b5f82825260208201905092915050565b7f63616c6c206661696c65640000000000000000000000000000000000000000005f82015250565b5f6106a4600b83610660565b91506106af82610670565b602082019050919050565b5f6020820190508181035f8301526106d181610698565b9050919050565b7f6469646e27742073656e6420656e6f75676820455448000000000000000000005f82015250565b5f61070c601683610660565b9150610717826106d8565b602082019050919050565b5f6020820190508181035f83015261073981610700565b9050919050565b7f4e487b71000000000000000000000000000000000000000000000000000000005f52601160045260245ffd5b5f6107778261050b565b91506107828361050b565b925082820190508082111561079a57610799610740565b5b92915050565b5f6107aa8261050b565b91506107b58361050b565b92508282026107c38161050b565b915082820484148315176107da576107d9610740565b5b5092915050565b7f4e487b71000000000000000000000000000000000000000000000000000000005f52601260045260245ffd5b5f6108188261050b565b91506108238361050b565b925082610833576108326107e1565b5b828204905092915050565b5f69ffffffffffffffffffff82169050919050565b61085c8161083e565b8114610866575f80fd5b50565b5f8151905061087781610853565b92915050565b5f819050919050565b61088f8161087d565b8114610899575f80fd5b50565b5f815190506108aa81610886565b92915050565b6108b98161050b565b81146108c3575f80fd5b50565b5f815190506108d4816108b0565b92915050565b5f805f805f60a086880312156108f3576108f261053c565b5b5f61090088828901610869565b95505060206109118882890161089c565b9450506040610922888289016108c6565b9350506060610933888289016108c6565b925050608061094488828901610869565b9150509295509295909350565b5f61095b8261087d565b91506109668361087d565b92508282026109748161087d565b91507f800000000000000000000000000000000000000000000000000000000000000084145f841216156109ab576109aa610740565b5b82820584148315176109c0576109bf610740565b5b509291505056fea26469706673582212208fada5c17711a65af1d801e39af3ff70618e1018ca5094c4590cdba3e3605bb364736f6c634300081a0033",
					"opcodes": "PUSH1 0x80 PUSH1 0x40 MSTORE PUSH8 0x4563918244F40000 PUSH0 SSTORE CALLVALUE DUP1 ISZERO PUSH1 0x19 JUMPI PUSH0 DUP1 REVERT JUMPDEST POP PUSH2 0x9FD DUP1 PUSH2 0x27 PUSH0 CODECOPY PUSH0 RETURN INVALID PUSH1 0x80 PUSH1 0x40 MSTORE PUSH1 0x4 CALLDATASIZE LT PUSH2 0x3E JUMPI PUSH0 CALLDATALOAD PUSH1 0xE0 SHR DUP1 PUSH4 0x98DE820 EQ PUSH2 0x42 JUMPI DUP1 PUSH4 0x3CCFD60B EQ PUSH2 0x6C JUMPI DUP1 PUSH4 0x3E47D6F3 EQ PUSH2 0x82 JUMPI DUP1 PUSH4 0xB60D4288 EQ PUSH2 0xBE JUMPI JUMPDEST PUSH0 DUP1 REVERT JUMPDEST CALLVALUE DUP1 ISZERO PUSH2 0x4D JUMPI PUSH0 DUP1 REVERT JUMPDEST POP PUSH2 0x56 PUSH2 0xC8 JUMP JUMPDEST PUSH1 0x40 MLOAD PUSH2 0x63 SWAP2 SWAP1 PUSH2 0x523 JUMP JUMPDEST PUSH1 0x40 MLOAD DUP1 SWAP2 SUB SWAP1 RETURN JUMPDEST CALLVALUE DUP1 ISZERO PUSH2 0x77 JUMPI PUSH0 DUP1 REVERT JUMPDEST POP PUSH2 0x80 PUSH2 0xCD JUMP JUMPDEST STOP JUMPDEST CALLVALUE DUP1 ISZERO PUSH2 0x8D JUMPI PUSH0 DUP1 REVERT JUMPDEST POP PUSH2 0xA8 PUSH1 0x4 DUP1 CALLDATASIZE SUB DUP2 ADD SWAP1 PUSH2 0xA3 SWAP2 SWAP1 PUSH2 0x59A JUMP JUMPDEST PUSH2 0x276 JUMP JUMPDEST PUSH1 0x40 MLOAD PUSH2 0xB5 SWAP2 SWAP1 PUSH2 0x523 JUMP JUMPDEST PUSH1 0x40 MLOAD DUP1 SWAP2 SUB SWAP1 RETURN JUMPDEST PUSH2 0xC6 PUSH2 0x28B JUMP JUMPDEST STOP JUMPDEST PUSH0 SLOAD DUP2 JUMP JUMPDEST PUSH0 JUMPDEST PUSH1 0x1 DUP1 SLOAD SWAP1 POP DUP2 LT ISZERO PUSH2 0x16B JUMPI PUSH0 PUSH1 0x1 DUP3 DUP2 SLOAD DUP2 LT PUSH2 0xF1 JUMPI PUSH2 0xF0 PUSH2 0x5C5 JUMP JUMPDEST JUMPDEST SWAP1 PUSH0 MSTORE PUSH1 0x20 PUSH0 KECCAK256 ADD PUSH0 SWAP1 SLOAD SWAP1 PUSH2 0x100 EXP SWAP1 DIV PUSH20 0xFFFFFFFFFFFFFFFFFFFFFFFFFFFFFFFFFFFFFFFF AND SWAP1 POP PUSH0 PUSH1 0x2 PUSH0 DUP4 PUSH20 0xFFFFFFFFFFFFFFFFFFFFFFFFFFFFFFFFFFFFFFFF AND PUSH20 0xFFFFFFFFFFFFFFFFFFFFFFFFFFFFFFFFFFFFFFFF AND DUP2 MSTORE PUSH1 0x20 ADD SWAP1 DUP2 MSTORE PUSH1 0x20 ADD PUSH0 KECCAK256 DUP2 SWAP1 SSTORE POP POP DUP1 DUP1 PUSH1 0x1 ADD SWAP2 POP POP PUSH2 0xCF JUMP JUMPDEST POP PUSH0 PUSH8 0xFFFFFFFFFFFFFFFF DUP2 GT ISZERO PUSH2 0x186 JUMPI PUSH2 0x185 PUSH2 0x5F2 JUMP JUMPDEST JUMPDEST PUSH1 0x40 MLOAD SWAP1 DUP1 DUP3 MSTORE DUP1 PUSH1 0x20 MUL PUSH1 0x20 ADD DUP3 ADD PUSH1 0x40 MSTORE DUP1 ISZERO PUSH2 0x1B4 JUMPI DUP2 PUSH1 0x20 ADD PUSH1 0x20 DUP3 MUL DUP1 CALLDATASIZE DUP4 CALLDATACOPY DUP1 DUP3 ADD SWAP2 POP POP SWAP1 POP JUMPDEST POP PUSH1 0x1 SWAP1 DUP1 MLOAD SWAP1 PUSH1 0x20 ADD SWAP1 PUSH2 0x1CA SWAP3 SWAP2 SWAP1 PUSH2 0x469 JUMP JUMPDEST POP PUSH0 CALLER PUSH20 0xFFFFFFFFFFFFFFFFFFFFFFFFFFFFFFFFFFFFFFFF AND SELFBALANCE PUSH1 0x40 MLOAD PUSH2 0x1F0 SWAP1 PUSH2 0x64C JUMP JUMPDEST PUSH0 PUSH1 0x40 MLOAD DUP1 DUP4 SUB DUP2 DUP6 DUP8 GAS CALL SWAP3 POP POP POP RETURNDATASIZE DUP1 PUSH0 DUP2 EQ PUSH2 0x22A JUMPI PUSH1 0x40 MLOAD SWAP2 POP PUSH1 0x1F NOT PUSH1 0x3F RETURNDATASIZE ADD AND DUP3 ADD PUSH1 0x40 MSTORE RETURNDATASIZE DUP3 MSTORE RETURNDATASIZE PUSH0 PUSH1 0x20 DUP5 ADD RETURNDATACOPY PUSH2 0x22F JUMP JUMPDEST PUSH1 0x60 SWAP2 POP JUMPDEST POP POP SWAP1 POP DUP1 PUSH2 0x273 JUMPI PUSH1 0x40 MLOAD PUSH32 0x8C379A000000000000000000000000000000000000000000000000000000000 DUP2 MSTORE PUSH1 0x4 ADD PUSH2 0x26A SWAP1 PUSH2 0x6BA JUMP JUMPDEST PUSH1 0x40 MLOAD DUP1 SWAP2 SUB SWAP1 REVERT JUMPDEST POP JUMP JUMPDEST PUSH1 0x2 PUSH1 0x20 MSTORE DUP1 PUSH0 MSTORE PUSH1 0x40 PUSH0 KECCAK256 PUSH0 SWAP2 POP SWAP1 POP SLOAD DUP2 JUMP JUMPDEST PUSH0 SLOAD PUSH2 0x296 CALLVALUE PUSH2 0x38C JUMP JUMPDEST LT ISZERO PUSH2 0x2D7 JUMPI PUSH1 0x40 MLOAD PUSH32 0x8C379A000000000000000000000000000000000000000000000000000000000 DUP2 MSTORE PUSH1 0x4 ADD PUSH2 0x2CE SWAP1 PUSH2 0x722 JUMP JUMPDEST PUSH1 0x40 MLOAD DUP1 SWAP2 SUB SWAP1 REVERT JUMPDEST PUSH1 0x1 CALLER SWAP1 DUP1 PUSH1 0x1 DUP2 SLOAD ADD DUP1 DUP3 SSTORE DUP1 SWAP2 POP POP PUSH1 0x1 SWAP1 SUB SWAP1 PUSH0 MSTORE PUSH1 0x20 PUSH0 KECCAK256 ADD PUSH0 SWAP1 SWAP2 SWAP1 SWAP2 SWAP1 SWAP2 PUSH2 0x100 EXP DUP2 SLOAD DUP2 PUSH20 0xFFFFFFFFFFFFFFFFFFFFFFFFFFFFFFFFFFFFFFFF MUL NOT AND SWAP1 DUP4 PUSH20 0xFFFFFFFFFFFFFFFFFFFFFFFFFFFFFFFFFFFFFFFF AND MUL OR SWAP1 SSTORE POP CALLVALUE PUSH1 0x2 PUSH0 CALLER PUSH20 0xFFFFFFFFFFFFFFFFFFFFFFFFFFFFFFFFFFFFFFFF AND PUSH20 0xFFFFFFFFFFFFFFFFFFFFFFFFFFFFFFFFFFFFFFFF AND DUP2 MSTORE PUSH1 0x20 ADD SWAP1 DUP2 MSTORE PUSH1 0x20 ADD PUSH0 KECCAK256 PUSH0 DUP3 DUP3 SLOAD PUSH2 0x383 SWAP2 SWAP1 PUSH2 0x76D JUMP JUMPDEST SWAP3 POP POP DUP2 SWAP1 SSTORE POP JUMP JUMPDEST PUSH0 DUP1 PUSH2 0x396 PUSH2 0x3C4 JUMP JUMPDEST SWAP1 POP PUSH0 PUSH8 0xDE0B6B3A7640000 DUP5 DUP4 PUSH2 0x3AE SWAP2 SWAP1 PUSH2 0x7A0 JUMP JUMPDEST PUSH2 0x3B8 SWAP2 SWAP1 PUSH2 0x80E JUMP JUMPDEST SWAP1 POP DUP1 SWAP3 POP POP POP SWAP2 SWAP1 POP JUMP JUMPDEST PUSH0 DUP1 PUSH20 0x5F4EC3DF9CBD43714FE2740F5E3616155C5B8419 SWAP1 POP PUSH0 DUP2 PUSH20 0xFFFFFFFFFFFFFFFFFFFFFFFFFFFFFFFFFFFFFFFF AND PUSH4 0xFEAF968C PUSH1 0x40 MLOAD DUP2 PUSH4 0xFFFFFFFF AND PUSH1 0xE0 SHL DUP2 MSTORE PUSH1 0x4 ADD PUSH1 0xA0 PUSH1 0x40 MLOAD DUP1 DUP4 SUB DUP2 DUP7 GAS STATICCALL ISZERO DUP1 ISZERO PUSH2 0x427 JUMPI RETURNDATASIZE PUSH0 DUP1 RETURNDATACOPY RETURNDATASIZE PUSH0 REVERT JUMPDEST POP POP POP POP PUSH1 0x40 MLOAD RETURNDATASIZE PUSH1 0x1F NOT PUSH1 0x1F DUP3 ADD AND DUP3 ADD DUP1 PUSH1 0x40 MSTORE POP DUP2 ADD SWAP1 PUSH2 0x44B SWAP2 SWAP1 PUSH2 0x8DA JUMP JUMPDEST POP POP POP SWAP2 POP POP PUSH5 0x2540BE400 DUP2 PUSH2 0x462 SWAP2 SWAP1 PUSH2 0x951 JUMP JUMPDEST SWAP3 POP POP POP SWAP1 JUMP JUMPDEST DUP3 DUP1 SLOAD DUP3 DUP3 SSTORE SWAP1 PUSH0 MSTORE PUSH1 0x20 PUSH0 KECCAK256 SWAP1 DUP2 ADD SWAP3 DUP3 ISZERO PUSH2 0x4DF JUMPI SWAP2 PUSH1 0x20 MUL DUP3 ADD JUMPDEST DUP3 DUP2 GT ISZERO PUSH2 0x4DE JUMPI DUP3 MLOAD DUP3 PUSH0 PUSH2 0x100 EXP DUP2 SLOAD DUP2 PUSH20 0xFFFFFFFFFFFFFFFFFFFFFFFFFFFFFFFFFFFFFFFF MUL NOT AND SWAP1 DUP4 PUSH20 0xFFFFFFFFFFFFFFFFFFFFFFFFFFFFFFFFFFFFFFFF AND MUL OR SWAP1 SSTORE POP SWAP2 PUSH1 0x20 ADD SWAP2 SWAP1 PUSH1 0x1 ADD SWAP1 PUSH2 0x487 JUMP JUMPDEST JUMPDEST POP SWAP1 POP PUSH2 0x4EC SWAP2 SWAP1 PUSH2 0x4F0 JUMP JUMPDEST POP SWAP1 JUMP JUMPDEST JUMPDEST DUP1 DUP3 GT ISZERO PUSH2 0x507 JUMPI PUSH0 DUP2 PUSH0 SWAP1 SSTORE POP PUSH1 0x1 ADD PUSH2 0x4F1 JUMP JUMPDEST POP SWAP1 JUMP JUMPDEST PUSH0 DUP2 SWAP1 POP SWAP2 SWAP1 POP JUMP JUMPDEST PUSH2 0x51D DUP2 PUSH2 0x50B JUMP JUMPDEST DUP3 MSTORE POP POP JUMP JUMPDEST PUSH0 PUSH1 0x20 DUP3 ADD SWAP1 POP PUSH2 0x536 PUSH0 DUP4 ADD DUP5 PUSH2 0x514 JUMP JUMPDEST SWAP3 SWAP2 POP POP JUMP JUMPDEST PUSH0 DUP1 REVERT JUMPDEST PUSH0 PUSH20 0xFFFFFFFFFFFFFFFFFFFFFFFFFFFFFFFFFFFFFFFF DUP3 AND SWAP1 POP SWAP2 SWAP1 POP JUMP JUMPDEST PUSH0 PUSH2 0x569 DUP3 PUSH2 0x540 JUMP JUMPDEST SWAP1 POP SWAP2 SWAP1 POP JUMP JUMPDEST PUSH2 0x579 DUP2 PUSH2 0x55F JUMP JUMPDEST DUP2 EQ PUSH2 0x583 JUMPI PUSH0 DUP1 REVERT JUMPDEST POP JUMP JUMPDEST PUSH0 DUP2 CALLDATALOAD SWAP1 POP PUSH2 0x594 DUP2 PUSH2 0x570 JUMP JUMPDEST SWAP3 SWAP2 POP POP JUMP JUMPDEST PUSH0 PUSH1 0x20 DUP3 DUP5 SUB SLT ISZERO PUSH2 0x5AF JUMPI PUSH2 0x5AE PUSH2 0x53C JUMP JUMPDEST JUMPDEST PUSH0 PUSH2 0x5BC DUP5 DUP3 DUP6 ADD PUSH2 0x586 JUMP JUMPDEST SWAP2 POP POP SWAP3 SWAP2 POP POP JUMP JUMPDEST PUSH32 0x4E487B7100000000000000000000000000000000000000000000000000000000 PUSH0 MSTORE PUSH1 0x32 PUSH1 0x4 MSTORE PUSH1 0x24 PUSH0 REVERT JUMPDEST PUSH32 0x4E487B7100000000000000000000000000000000000000000000000000000000 PUSH0 MSTORE PUSH1 0x41 PUSH1 0x4 MSTORE PUSH1 0x24 PUSH0 REVERT JUMPDEST PUSH0 DUP2 SWAP1 POP SWAP3 SWAP2 POP POP JUMP JUMPDEST POP JUMP JUMPDEST PUSH0 PUSH2 0x637 PUSH0 DUP4 PUSH2 0x61F JUMP JUMPDEST SWAP2 POP PUSH2 0x642 DUP3 PUSH2 0x629 JUMP JUMPDEST PUSH0 DUP3 ADD SWAP1 POP SWAP2 SWAP1 POP JUMP JUMPDEST PUSH0 PUSH2 0x656 DUP3 PUSH2 0x62C JUMP JUMPDEST SWAP2 POP DUP2 SWAP1 POP SWAP2 SWAP1 POP JUMP JUMPDEST PUSH0 DUP3 DUP3 MSTORE PUSH1 0x20 DUP3 ADD SWAP1 POP SWAP3 SWAP2 POP POP JUMP JUMPDEST PUSH32 0x63616C6C206661696C6564000000000000000000000000000000000000000000 PUSH0 DUP3 ADD MSTORE POP JUMP JUMPDEST PUSH0 PUSH2 0x6A4 PUSH1 0xB DUP4 PUSH2 0x660 JUMP JUMPDEST SWAP2 POP PUSH2 0x6AF DUP3 PUSH2 0x670 JUMP JUMPDEST PUSH1 0x20 DUP3 ADD SWAP1 POP SWAP2 SWAP1 POP JUMP JUMPDEST PUSH0 PUSH1 0x20 DUP3 ADD SWAP1 POP DUP2 DUP2 SUB PUSH0 DUP4 ADD MSTORE PUSH2 0x6D1 DUP2 PUSH2 0x698 JUMP JUMPDEST SWAP1 POP SWAP2 SWAP1 POP JUMP JUMPDEST PUSH32 0x6469646E27742073656E6420656E6F7567682045544800000000000000000000 PUSH0 DUP3 ADD MSTORE POP JUMP JUMPDEST PUSH0 PUSH2 0x70C PUSH1 0x16 DUP4 PUSH2 0x660 JUMP JUMPDEST SWAP2 POP PUSH2 0x717 DUP3 PUSH2 0x6D8 JUMP JUMPDEST PUSH1 0x20 DUP3 ADD SWAP1 POP SWAP2 SWAP1 POP JUMP JUMPDEST PUSH0 PUSH1 0x20 DUP3 ADD SWAP1 POP DUP2 DUP2 SUB PUSH0 DUP4 ADD MSTORE PUSH2 0x739 DUP2 PUSH2 0x700 JUMP JUMPDEST SWAP1 POP SWAP2 SWAP1 POP JUMP JUMPDEST PUSH32 0x4E487B7100000000000000000000000000000000000000000000000000000000 PUSH0 MSTORE PUSH1 0x11 PUSH1 0x4 MSTORE PUSH1 0x24 PUSH0 REVERT JUMPDEST PUSH0 PUSH2 0x777 DUP3 PUSH2 0x50B JUMP JUMPDEST SWAP2 POP PUSH2 0x782 DUP4 PUSH2 0x50B JUMP JUMPDEST SWAP3 POP DUP3 DUP3 ADD SWAP1 POP DUP1 DUP3 GT ISZERO PUSH2 0x79A JUMPI PUSH2 0x799 PUSH2 0x740 JUMP JUMPDEST JUMPDEST SWAP3 SWAP2 POP POP JUMP JUMPDEST PUSH0 PUSH2 0x7AA DUP3 PUSH2 0x50B JUMP JUMPDEST SWAP2 POP PUSH2 0x7B5 DUP4 PUSH2 0x50B JUMP JUMPDEST SWAP3 POP DUP3 DUP3 MUL PUSH2 0x7C3 DUP2 PUSH2 0x50B JUMP JUMPDEST SWAP2 POP DUP3 DUP3 DIV DUP5 EQ DUP4 ISZERO OR PUSH2 0x7DA JUMPI PUSH2 0x7D9 PUSH2 0x740 JUMP JUMPDEST JUMPDEST POP SWAP3 SWAP2 POP POP JUMP JUMPDEST PUSH32 0x4E487B7100000000000000000000000000000000000000000000000000000000 PUSH0 MSTORE PUSH1 0x12 PUSH1 0x4 MSTORE PUSH1 0x24 PUSH0 REVERT JUMPDEST PUSH0 PUSH2 0x818 DUP3 PUSH2 0x50B JUMP JUMPDEST SWAP2 POP PUSH2 0x823 DUP4 PUSH2 0x50B JUMP JUMPDEST SWAP3 POP DUP3 PUSH2 0x833 JUMPI PUSH2 0x832 PUSH2 0x7E1 JUMP JUMPDEST JUMPDEST DUP3 DUP3 DIV SWAP1 POP SWAP3 SWAP2 POP POP JUMP JUMPDEST PUSH0 PUSH10 0xFFFFFFFFFFFFFFFFFFFF DUP3 AND SWAP1 POP SWAP2 SWAP1 POP JUMP JUMPDEST PUSH2 0x85C DUP2 PUSH2 0x83E JUMP JUMPDEST DUP2 EQ PUSH2 0x866 JUMPI PUSH0 DUP1 REVERT JUMPDEST POP JUMP JUMPDEST PUSH0 DUP2 MLOAD SWAP1 POP PUSH2 0x877 DUP2 PUSH2 0x853 JUMP JUMPDEST SWAP3 SWAP2 POP POP JUMP JUMPDEST PUSH0 DUP2 SWAP1 POP SWAP2 SWAP1 POP JUMP JUMPDEST PUSH2 0x88F DUP2 PUSH2 0x87D JUMP JUMPDEST DUP2 EQ PUSH2 0x899 JUMPI PUSH0 DUP1 REVERT JUMPDEST POP JUMP JUMPDEST PUSH0 DUP2 MLOAD SWAP1 POP PUSH2 0x8AA DUP2 PUSH2 0x886 JUMP JUMPDEST SWAP3 SWAP2 POP POP JUMP JUMPDEST PUSH2 0x8B9 DUP2 PUSH2 0x50B JUMP JUMPDEST DUP2 EQ PUSH2 0x8C3 JUMPI PUSH0 DUP1 REVERT JUMPDEST POP JUMP JUMPDEST PUSH0 DUP2 MLOAD SWAP1 POP PUSH2 0x8D4 DUP2 PUSH2 0x8B0 JUMP JUMPDEST SWAP3 SWAP2 POP POP JUMP JUMPDEST PUSH0 DUP1 PUSH0 DUP1 PUSH0 PUSH1 0xA0 DUP7 DUP9 SUB SLT ISZERO PUSH2 0x8F3 JUMPI PUSH2 0x8F2 PUSH2 0x53C JUMP JUMPDEST JUMPDEST PUSH0 PUSH2 0x900 DUP9 DUP3 DUP10 ADD PUSH2 0x869 JUMP JUMPDEST SWAP6 POP POP PUSH1 0x20 PUSH2 0x911 DUP9 DUP3 DUP10 ADD PUSH2 0x89C JUMP JUMPDEST SWAP5 POP POP PUSH1 0x40 PUSH2 0x922 DUP9 DUP3 DUP10 ADD PUSH2 0x8C6 JUMP JUMPDEST SWAP4 POP POP PUSH1 0x60 PUSH2 0x933 DUP9 DUP3 DUP10 ADD PUSH2 0x8C6 JUMP JUMPDEST SWAP3 POP POP PUSH1 0x80 PUSH2 0x944 DUP9 DUP3 DUP10 ADD PUSH2 0x869 JUMP JUMPDEST SWAP2 POP POP SWAP3 SWAP6 POP SWAP3 SWAP6 SWAP1 SWAP4 POP JUMP JUMPDEST PUSH0 PUSH2 0x95B DUP3 PUSH2 0x87D JUMP JUMPDEST SWAP2 POP PUSH2 0x966 DUP4 PUSH2 0x87D JUMP JUMPDEST SWAP3 POP DUP3 DUP3 MUL PUSH2 0x974 DUP2 PUSH2 0x87D JUMP JUMPDEST SWAP2 POP PUSH32 0x8000000000000000000000000000000000000000000000000000000000000000 DUP5 EQ PUSH0 DUP5 SLT AND ISZERO PUSH2 0x9AB JUMPI PUSH2 0x9AA PUSH2 0x740 JUMP JUMPDEST JUMPDEST DUP3 DUP3 SDIV DUP5 EQ DUP4 ISZERO OR PUSH2 0x9C0 JUMPI PUSH2 0x9BF PUSH2 0x740 JUMP JUMPDEST JUMPDEST POP SWAP3 SWAP2 POP POP JUMP INVALID LOG2 PUSH5 0x6970667358 0x22 SLT KECCAK256 DUP16 0xAD 0xA5 0xC1 PUSH24 0x11A65AF1D801E39AF3FF70618E1018CA5094C4590CDBA3E3 PUSH1 0x5B 0xB3 PUSH5 0x736F6C6343 STOP ADDMOD BYTE STOP CALLER "
				},
				"gasEstimates": {
					"creation": {
						"codeDepositCost": "511400",
						"executionCost": "22646",
						"totalCost": "534046"
					},
					"external": {
						"addressToAmountFunded(address)": "2824",
						"fund()": "infinite",
						"minimumUsd()": "2402",
						"withdraw()": "infinite"
					}
				},
				"methodIdentifiers": {
					"addressToAmountFunded(address)": "3e47d6f3",
					"fund()": "b60d4288",
					"minimumUsd()": "098de820",
					"withdraw()": "3ccfd60b"
				}
			},
			"storageLayout": {
				"storage": [
					{
						"astId": 55,
						"contract": "contracts/FundMe.sol:FundMe",
						"label": "minimumUsd",
						"offset": 0,
						"slot": "0",
						"type": "t_uint256"
					},
					{
						"astId": 58,
						"contract": "contracts/FundMe.sol:FundMe",
						"label": "funders",
						"offset": 0,
						"slot": "1",
						"type": "t_array(t_address)dyn_storage"
					},
					{
						"astId": 62,
						"contract": "contracts/FundMe.sol:FundMe",
						"label": "addressToAmountFunded",
						"offset": 0,
						"slot": "2",
						"type": "t_mapping(t_address,t_uint256)"
					}
				],
				"types": {
					"t_address": {
						"encoding": "inplace",
						"label": "address",
						"numberOfBytes": "20"
					},
					"t_array(t_address)dyn_storage": {
						"base": "t_address",
						"encoding": "dynamic_array",
						"label": "address[]",
						"numberOfBytes": "32"
					},
					"t_mapping(t_address,t_uint256)": {
						"encoding": "mapping",
						"key": "t_address",
						"label": "mapping(address => uint256)",
						"numberOfBytes": "32",
						"value": "t_uint256"
					},
					"t_uint256": {
						"encoding": "inplace",
						"label": "uint256",
						"numberOfBytes": "32"
					}
				}
			},
			"userdoc": {
				"kind": "user",
				"methods": {},
				"version": 1
			}
		}
	}
}