{
	"contracts/FundMe.sol": {
		"FundMe": {
			"abi": [
				{
					"inputs": [],
					"stateMutability": "nonpayable",
					"type": "constructor"
				},
				{
					"inputs": [],
					"name": "NotOwner",
					"type": "error"
				},
				{
					"inputs": [],
					"name": "MINIMUM_USD",
					"outputs": [
						{
							"internalType": "uint256",
							"name": "",
							"type": "uint256"
						}
					],
					"stateMutability": "view",
					"type": "function"
				},
				{
					"inputs": [
						{
							"internalType": "address",
							"name": "funder",
							"type": "address"
						}
					],
					"name": "addressToAmountFunded",
					"outputs": [
						{
							"internalType": "uint256",
							"name": "amountFunded",
							"type": "uint256"
						}
					],
					"stateMutability": "view",
					"type": "function"
				},
				{
					"inputs": [],
					"name": "fund",
					"outputs": [],
					"stateMutability": "payable",
					"type": "function"
				},
				{
					"inputs": [],
					"name": "i_owner",
					"outputs": [
						{
							"internalType": "address",
							"name": "",
							"type": "address"
						}
					],
					"stateMutability": "view",
					"type": "function"
				},
				{
					"inputs": [],
					"name": "withdraw",
					"outputs": [],
					"stateMutability": "nonpayable",
					"type": "function"
				}
			],
			"devdoc": {
				"kind": "dev",
				"methods": {},
				"version": 1
			},
			"evm": {
				"assembly": "    /* \"contracts/FundMe.sol\":131:1178  contract FundMe {... */\n  mstore(0x40, 0xa0)\n    /* \"contracts/FundMe.sol\":386:437  constructor() {... */\n  callvalue\n  dup1\n  iszero\n  tag_1\n  jumpi\n  0x00\n  dup1\n  revert\ntag_1:\n  pop\n    /* \"contracts/FundMe.sol\":420:430  msg.sender */\n  caller\n    /* \"contracts/FundMe.sol\":410:430  i_owner = msg.sender */\n  0xffffffffffffffffffffffffffffffffffffffff\n  and\n  0x80\n  dup2\n  0xffffffffffffffffffffffffffffffffffffffff\n  and\n  dup2\n  mstore\n  pop\n  pop\n    /* \"contracts/FundMe.sol\":131:1178  contract FundMe {... */\n  mload(0x80)\n  codecopy(0x00, dataOffset(sub_0), dataSize(sub_0))\n  0x00\n  assignImmutable(\"0x35bb2e240092263378f77ea1e9c278099a33b604c4c4e26d13ea227e8bb74470\")\n  return(0x00, dataSize(sub_0))\nstop\n\nsub_0: assembly {\n        /* \"contracts/FundMe.sol\":131:1178  contract FundMe {... */\n      mstore(0x40, 0x80)\n      jumpi(tag_1, lt(calldatasize, 0x04))\n      shr(0xe0, calldataload(0x00))\n      dup1\n      0x3ccfd60b\n      eq\n      tag_2\n      jumpi\n      dup1\n      0x3e47d6f3\n      eq\n      tag_3\n      jumpi\n      dup1\n      0x6b69a592\n      eq\n      tag_4\n      jumpi\n      dup1\n      0xb60d4288\n      eq\n      tag_5\n      jumpi\n      dup1\n      0xdba6335f\n      eq\n      tag_6\n      jumpi\n    tag_1:\n      0x00\n      dup1\n      revert\n        /* \"contracts/FundMe.sol\":666:1075  function withdraw() public onlyOwner {... */\n    tag_2:\n      callvalue\n      dup1\n      iszero\n      tag_7\n      jumpi\n      0x00\n      dup1\n      revert\n    tag_7:\n      pop\n      tag_8\n      tag_9\n      jump\t// in\n    tag_8:\n      stop\n        /* \"contracts/FundMe.sol\":264:340  mapping(address funder => uint256 amountFunded) public addressToAmountFunded */\n    tag_3:\n      callvalue\n      dup1\n      iszero\n      tag_10\n      jumpi\n      0x00\n      dup1\n      revert\n    tag_10:\n      pop\n      tag_11\n      0x04\n      dup1\n      calldatasize\n      sub\n      dup2\n      add\n      swap1\n      tag_12\n      swap2\n      swap1\n      tag_13\n      jump\t// in\n    tag_12:\n      tag_14\n      jump\t// in\n    tag_11:\n      mload(0x40)\n      tag_15\n      swap2\n      swap1\n      tag_16\n      jump\t// in\n    tag_15:\n      mload(0x40)\n      dup1\n      swap2\n      sub\n      swap1\n      return\n        /* \"contracts/FundMe.sol\":192:234  uint256 public constant MINIMUM_USD = 5e18 */\n    tag_4:\n      callvalue\n      dup1\n      iszero\n      tag_17\n      jumpi\n      0x00\n      dup1\n      revert\n    tag_17:\n      pop\n      tag_18\n      tag_19\n      jump\t// in\n    tag_18:\n      mload(0x40)\n      tag_20\n      swap2\n      swap1\n      tag_16\n      jump\t// in\n    tag_20:\n      mload(0x40)\n      dup1\n      swap2\n      sub\n      swap1\n      return\n        /* \"contracts/FundMe.sol\":443:660  function fund() public payable {... */\n    tag_5:\n      tag_21\n      tag_22\n      jump\t// in\n    tag_21:\n      stop\n        /* \"contracts/FundMe.sol\":347:379  address public immutable i_owner */\n    tag_6:\n      callvalue\n      dup1\n      iszero\n      tag_23\n      jumpi\n      0x00\n      dup1\n      revert\n    tag_23:\n      pop\n      tag_24\n      tag_25\n      jump\t// in\n    tag_24:\n      mload(0x40)\n      tag_26\n      swap2\n      swap1\n      tag_27\n      jump\t// in\n    tag_26:\n      mload(0x40)\n      dup1\n      swap2\n      sub\n      swap1\n      return\n        /* \"contracts/FundMe.sol\":666:1075  function withdraw() public onlyOwner {... */\n    tag_9:\n        /* \"contracts/FundMe.sol\":1128:1135  i_owner */\n      immutable(\"0x35bb2e240092263378f77ea1e9c278099a33b604c4c4e26d13ea227e8bb74470\")\n        /* \"contracts/FundMe.sol\":1114:1135  msg.sender == i_owner */\n      0xffffffffffffffffffffffffffffffffffffffff\n      and\n        /* \"contracts/FundMe.sol\":1114:1124  msg.sender */\n      caller\n        /* \"contracts/FundMe.sol\":1114:1135  msg.sender == i_owner */\n      0xffffffffffffffffffffffffffffffffffffffff\n      and\n      sub\n        /* \"contracts/FundMe.sol\":1110:1159  if (msg.sender == i_owner) { revert NotOwner(); } */\n      tag_29\n      jumpi\n        /* \"contracts/FundMe.sol\":1146:1156  NotOwner() */\n      mload(0x40)\n      0x30cd747100000000000000000000000000000000000000000000000000000000\n      dup2\n      mstore\n      0x04\n      add\n      mload(0x40)\n      dup1\n      swap2\n      sub\n      swap1\n      revert\n        /* \"contracts/FundMe.sol\":1110:1159  if (msg.sender == i_owner) { revert NotOwner(); } */\n    tag_29:\n        /* \"contracts/FundMe.sol\":717:736  uint256 funderIndex */\n      0x00\n        /* \"contracts/FundMe.sol\":713:896  for(uint256 funderIndex = 0; funderIndex < funders.length; funderIndex++) {... */\n    tag_31:\n        /* \"contracts/FundMe.sol\":756:763  funders */\n      0x00\n        /* \"contracts/FundMe.sol\":756:770  funders.length */\n      dup1\n      sload\n      swap1\n      pop\n        /* \"contracts/FundMe.sol\":742:753  funderIndex */\n      dup2\n        /* \"contracts/FundMe.sol\":742:770  funderIndex < funders.length */\n      lt\n        /* \"contracts/FundMe.sol\":713:896  for(uint256 funderIndex = 0; funderIndex < funders.length; funderIndex++) {... */\n      iszero\n      tag_32\n      jumpi\n        /* \"contracts/FundMe.sol\":801:815  address funder */\n      0x00\n        /* \"contracts/FundMe.sol\":818:825  funders */\n      dup1\n        /* \"contracts/FundMe.sol\":826:837  funderIndex */\n      dup3\n        /* \"contracts/FundMe.sol\":818:838  funders[funderIndex] */\n      dup2\n      sload\n      dup2\n      lt\n      tag_34\n      jumpi\n      tag_35\n      tag_36\n      jump\t// in\n    tag_35:\n    tag_34:\n      swap1\n      0x00\n      mstore\n      keccak256(0x00, 0x20)\n      add\n      0x00\n      swap1\n      sload\n      swap1\n      0x0100\n      exp\n      swap1\n      div\n      0xffffffffffffffffffffffffffffffffffffffff\n      and\n        /* \"contracts/FundMe.sol\":801:838  address funder = funders[funderIndex] */\n      swap1\n      pop\n        /* \"contracts/FundMe.sol\":884:885  0 */\n      0x00\n        /* \"contracts/FundMe.sol\":852:873  addressToAmountFunded */\n      0x01\n        /* \"contracts/FundMe.sol\":852:881  addressToAmountFunded[funder] */\n      0x00\n        /* \"contracts/FundMe.sol\":874:880  funder */\n      dup4\n        /* \"contracts/FundMe.sol\":852:881  addressToAmountFunded[funder] */\n      0xffffffffffffffffffffffffffffffffffffffff\n      and\n      0xffffffffffffffffffffffffffffffffffffffff\n      and\n      dup2\n      mstore\n      0x20\n      add\n      swap1\n      dup2\n      mstore\n      0x20\n      add\n      0x00\n      keccak256\n        /* \"contracts/FundMe.sol\":852:885  addressToAmountFunded[funder] = 0 */\n      dup2\n      swap1\n      sstore\n      pop\n        /* \"contracts/FundMe.sol\":787:896  {... */\n      pop\n        /* \"contracts/FundMe.sol\":772:785  funderIndex++ */\n      dup1\n      dup1\n      0x01\n      add\n      swap2\n      pop\n      pop\n        /* \"contracts/FundMe.sol\":713:896  for(uint256 funderIndex = 0; funderIndex < funders.length; funderIndex++) {... */\n      jump(tag_31)\n    tag_32:\n      pop\n        /* \"contracts/FundMe.sol\":929:930  0 */\n      0x00\n        /* \"contracts/FundMe.sol\":915:931  new address[](0) */\n      0xffffffffffffffff\n      dup2\n      gt\n      iszero\n      tag_38\n      jumpi\n      tag_39\n      tag_40\n      jump\t// in\n    tag_39:\n    tag_38:\n      mload(0x40)\n      swap1\n      dup1\n      dup3\n      mstore\n      dup1\n      0x20\n      mul\n      0x20\n      add\n      dup3\n      add\n      0x40\n      mstore\n      dup1\n      iszero\n      tag_41\n      jumpi\n      dup2\n      0x20\n      add\n      0x20\n      dup3\n      mul\n      dup1\n      calldatasize\n      dup4\n      calldatacopy\n      dup1\n      dup3\n      add\n      swap2\n      pop\n      pop\n      swap1\n      pop\n    tag_41:\n      pop\n        /* \"contracts/FundMe.sol\":905:912  funders */\n      0x00\n        /* \"contracts/FundMe.sol\":905:931  funders = new address[](0) */\n      swap1\n      dup1\n      mload\n      swap1\n      0x20\n      add\n      swap1\n      tag_42\n      swap3\n      swap2\n      swap1\n      tag_43\n      jump\t// in\n    tag_42:\n      pop\n        /* \"contracts/FundMe.sol\":943:959  bool callSuccess */\n      0x00\n        /* \"contracts/FundMe.sol\":973:983  msg.sender */\n      caller\n        /* \"contracts/FundMe.sol\":965:989  payable(msg.sender).call */\n      0xffffffffffffffffffffffffffffffffffffffff\n      and\n        /* \"contracts/FundMe.sol\":997:1018  address(this).balance */\n      selfbalance\n        /* \"contracts/FundMe.sol\":965:1023  payable(msg.sender).call{value: address(this).balance}(\"\") */\n      mload(0x40)\n      tag_44\n      swap1\n      tag_45\n      jump\t// in\n    tag_44:\n      0x00\n      mload(0x40)\n      dup1\n      dup4\n      sub\n      dup2\n      dup6\n      dup8\n      gas\n      call\n      swap3\n      pop\n      pop\n      pop\n      returndatasize\n      dup1\n      0x00\n      dup2\n      eq\n      tag_48\n      jumpi\n      mload(0x40)\n      swap2\n      pop\n      and(add(returndatasize, 0x3f), not(0x1f))\n      dup3\n      add\n      0x40\n      mstore\n      returndatasize\n      dup3\n      mstore\n      returndatasize\n      0x00\n      0x20\n      dup5\n      add\n      returndatacopy\n      jump(tag_47)\n    tag_48:\n      0x60\n      swap2\n      pop\n    tag_47:\n      pop\n        /* \"contracts/FundMe.sol\":942:1023  (bool callSuccess, ) = payable(msg.sender).call{value: address(this).balance}(\"\") */\n      pop\n      swap1\n      pop\n        /* \"contracts/FundMe.sol\":1041:1052  callSuccess */\n      dup1\n        /* \"contracts/FundMe.sol\":1033:1068  require(callSuccess, \"call failed\") */\n      tag_49\n      jumpi\n      mload(0x40)\n      0x08c379a000000000000000000000000000000000000000000000000000000000\n      dup2\n      mstore\n      0x04\n      add\n      tag_50\n      swap1\n      tag_51\n      jump\t// in\n    tag_50:\n      mload(0x40)\n      dup1\n      swap2\n      sub\n      swap1\n      revert\n    tag_49:\n        /* \"contracts/FundMe.sol\":703:1075  {... */\n      pop\n        /* \"contracts/FundMe.sol\":666:1075  function withdraw() public onlyOwner {... */\n      jump\t// out\n        /* \"contracts/FundMe.sol\":264:340  mapping(address funder => uint256 amountFunded) public addressToAmountFunded */\n    tag_14:\n      mstore(0x20, 0x01)\n      dup1\n      0x00\n      mstore\n      keccak256(0x00, 0x40)\n      0x00\n      swap2\n      pop\n      swap1\n      pop\n      sload\n      dup2\n      jump\t// out\n        /* \"contracts/FundMe.sol\":192:234  uint256 public constant MINIMUM_USD = 5e18 */\n    tag_19:\n        /* \"contracts/FundMe.sol\":230:234  5e18 */\n      0x4563918244f40000\n        /* \"contracts/FundMe.sol\":192:234  uint256 public constant MINIMUM_USD = 5e18 */\n      dup2\n      jump\t// out\n        /* \"contracts/FundMe.sol\":443:660  function fund() public payable {... */\n    tag_22:\n        /* \"contracts/FundMe.sol\":230:234  5e18 */\n      0x4563918244f40000\n        /* \"contracts/FundMe.sol\":492:521  msg.value.getConversionRate() */\n      tag_53\n        /* \"contracts/FundMe.sol\":492:501  msg.value */\n      callvalue\n        /* \"contracts/FundMe.sol\":492:519  msg.value.getConversionRate */\n      tag_54\n        /* \"contracts/FundMe.sol\":492:521  msg.value.getConversionRate() */\n      jump\t// in\n    tag_53:\n        /* \"contracts/FundMe.sol\":492:536  msg.value.getConversionRate() >= MINIMUM_USD */\n      lt\n      iszero\n        /* \"contracts/FundMe.sol\":484:563  require(msg.value.getConversionRate() >= MINIMUM_USD, \"didn't send enough ETH\") */\n      tag_55\n      jumpi\n      mload(0x40)\n      0x08c379a000000000000000000000000000000000000000000000000000000000\n      dup2\n      mstore\n      0x04\n      add\n      tag_56\n      swap1\n      tag_57\n      jump\t// in\n    tag_56:\n      mload(0x40)\n      dup1\n      swap2\n      sub\n      swap1\n      revert\n    tag_55:\n        /* \"contracts/FundMe.sol\":573:580  funders */\n      0x00\n        /* \"contracts/FundMe.sol\":586:596  msg.sender */\n      caller\n        /* \"contracts/FundMe.sol\":573:597  funders.push(msg.sender) */\n      swap1\n      dup1\n      0x01\n      dup2\n      sload\n      add\n      dup1\n      dup3\n      sstore\n      dup1\n      swap2\n      pop\n      pop\n      0x01\n      swap1\n      sub\n      swap1\n      0x00\n      mstore\n      keccak256(0x00, 0x20)\n      add\n      0x00\n      swap1\n      swap2\n      swap1\n      swap2\n      swap1\n      swap2\n      0x0100\n      exp\n      dup2\n      sload\n      dup2\n      0xffffffffffffffffffffffffffffffffffffffff\n      mul\n      not\n      and\n      swap1\n      dup4\n      0xffffffffffffffffffffffffffffffffffffffff\n      and\n      mul\n      or\n      swap1\n      sstore\n      pop\n        /* \"contracts/FundMe.sol\":644:653  msg.value */\n      callvalue\n        /* \"contracts/FundMe.sol\":607:628  addressToAmountFunded */\n      0x01\n        /* \"contracts/FundMe.sol\":607:640  addressToAmountFunded[msg.sender] */\n      0x00\n        /* \"contracts/FundMe.sol\":629:639  msg.sender */\n      caller\n        /* \"contracts/FundMe.sol\":607:640  addressToAmountFunded[msg.sender] */\n      0xffffffffffffffffffffffffffffffffffffffff\n      and\n      0xffffffffffffffffffffffffffffffffffffffff\n      and\n      dup2\n      mstore\n      0x20\n      add\n      swap1\n      dup2\n      mstore\n      0x20\n      add\n      0x00\n      keccak256\n      0x00\n        /* \"contracts/FundMe.sol\":607:653  addressToAmountFunded[msg.sender] += msg.value */\n      dup3\n      dup3\n      sload\n      tag_59\n      swap2\n      swap1\n      tag_60\n      jump\t// in\n    tag_59:\n      swap3\n      pop\n      pop\n      dup2\n      swap1\n      sstore\n      pop\n        /* \"contracts/FundMe.sol\":443:660  function fund() public payable {... */\n      jump\t// out\n        /* \"contracts/FundMe.sol\":347:379  address public immutable i_owner */\n    tag_25:\n      immutable(\"0x35bb2e240092263378f77ea1e9c278099a33b604c4c4e26d13ea227e8bb74470\")\n      dup2\n      jump\t// out\n        /* \"contracts/PriceConverter.sol\":472:690  function getConversionRate(uint256 ethAmount) internal view returns(uint256) {... */\n    tag_54:\n        /* \"contracts/PriceConverter.sol\":540:547  uint256 */\n      0x00\n        /* \"contracts/PriceConverter.sol\":559:575  uint256 ethPrice */\n      dup1\n        /* \"contracts/PriceConverter.sol\":578:588  getPrice() */\n      tag_62\n        /* \"contracts/PriceConverter.sol\":578:586  getPrice */\n      tag_63\n        /* \"contracts/PriceConverter.sol\":578:588  getPrice() */\n      jump\t// in\n    tag_62:\n        /* \"contracts/PriceConverter.sol\":559:588  uint256 ethPrice = getPrice() */\n      swap1\n      pop\n        /* \"contracts/PriceConverter.sol\":598:620  uint256 ethAmountInUsd */\n      0x00\n        /* \"contracts/PriceConverter.sol\":648:652  1e18 */\n      0x0de0b6b3a7640000\n        /* \"contracts/PriceConverter.sol\":635:644  ethAmount */\n      dup5\n        /* \"contracts/PriceConverter.sol\":624:632  ethPrice */\n      dup4\n        /* \"contracts/PriceConverter.sol\":624:644  ethPrice * ethAmount */\n      tag_64\n      swap2\n      swap1\n      tag_65\n      jump\t// in\n    tag_64:\n        /* \"contracts/PriceConverter.sol\":623:652  (ethPrice * ethAmount) / 1e18 */\n      tag_66\n      swap2\n      swap1\n      tag_67\n      jump\t// in\n    tag_66:\n        /* \"contracts/PriceConverter.sol\":598:652  uint256 ethAmountInUsd = (ethPrice * ethAmount) / 1e18 */\n      swap1\n      pop\n        /* \"contracts/PriceConverter.sol\":669:683  ethAmountInUsd */\n      dup1\n        /* \"contracts/PriceConverter.sol\":662:683  return ethAmountInUsd */\n      swap3\n      pop\n      pop\n      pop\n        /* \"contracts/PriceConverter.sol\":472:690  function getConversionRate(uint256 ethAmount) internal view returns(uint256) {... */\n      swap2\n      swap1\n      pop\n      jump\t// out\n        /* \"contracts/PriceConverter.sol\":201:467  function getPrice() internal view returns(uint256) {... */\n    tag_63:\n        /* \"contracts/PriceConverter.sol\":243:250  uint256 */\n      0x00\n        /* \"contracts/PriceConverter.sol\":262:293  AggregatorV3Interface priceFeed */\n      dup1\n        /* \"contracts/PriceConverter.sol\":318:360  0x5f4eC3Df9cbd43714FE2740f5E3616155c5b8419 */\n      0x5f4ec3df9cbd43714fe2740f5e3616155c5b8419\n        /* \"contracts/PriceConverter.sol\":262:361  AggregatorV3Interface priceFeed = AggregatorV3Interface(0x5f4eC3Df9cbd43714FE2740f5E3616155c5b8419) */\n      swap1\n      pop\n        /* \"contracts/PriceConverter.sol\":374:386  int256 price */\n      0x00\n        /* \"contracts/PriceConverter.sol\":395:404  priceFeed */\n      dup2\n        /* \"contracts/PriceConverter.sol\":395:420  priceFeed.latestRoundData */\n      0xffffffffffffffffffffffffffffffffffffffff\n      and\n      0xfeaf968c\n        /* \"contracts/PriceConverter.sol\":395:422  priceFeed.latestRoundData() */\n      mload(0x40)\n      dup2\n      0xffffffff\n      and\n      0xe0\n      shl\n      dup2\n      mstore\n      0x04\n      add\n      0xa0\n      mload(0x40)\n      dup1\n      dup4\n      sub\n      dup2\n      dup7\n      gas\n      staticcall\n      iszero\n      dup1\n      iszero\n      tag_70\n      jumpi\n      returndatasize\n      0x00\n      dup1\n      returndatacopy\n      revert(0x00, returndatasize)\n    tag_70:\n      pop\n      pop\n      pop\n      pop\n      mload(0x40)\n      returndatasize\n      not(0x1f)\n      0x1f\n      dup3\n      add\n      and\n      dup3\n      add\n      dup1\n      0x40\n      mstore\n      pop\n      dup2\n      add\n      swap1\n      tag_71\n      swap2\n      swap1\n      tag_72\n      jump\t// in\n    tag_71:\n        /* \"contracts/PriceConverter.sol\":371:422  (, int256 price, , ,) = priceFeed.latestRoundData() */\n      pop\n      pop\n      pop\n      swap2\n      pop\n      pop\n        /* \"contracts/PriceConverter.sol\":455:459  1e10 */\n      0x02540be400\n        /* \"contracts/PriceConverter.sol\":447:452  price */\n      dup2\n        /* \"contracts/PriceConverter.sol\":447:459  price * 1e10 */\n      tag_73\n      swap2\n      swap1\n      tag_74\n      jump\t// in\n    tag_73:\n        /* \"contracts/PriceConverter.sol\":432:460  return uint256(price * 1e10) */\n      swap3\n      pop\n      pop\n      pop\n        /* \"contracts/PriceConverter.sol\":201:467  function getPrice() internal view returns(uint256) {... */\n      swap1\n      jump\t// out\n    tag_43:\n      dup3\n      dup1\n      sload\n      dup3\n      dup3\n      sstore\n      swap1\n      0x00\n      mstore\n      keccak256(0x00, 0x20)\n      swap1\n      dup2\n      add\n      swap3\n      dup3\n      iszero\n      tag_75\n      jumpi\n      swap2\n      0x20\n      mul\n      dup3\n      add\n    tag_76:\n      dup3\n      dup2\n      gt\n      iszero\n      tag_77\n      jumpi\n      dup3\n      mload\n      dup3\n      exp(0x0100, 0x00)\n      dup2\n      sload\n      dup2\n      0xffffffffffffffffffffffffffffffffffffffff\n      mul\n      not\n      and\n      swap1\n      dup4\n      0xffffffffffffffffffffffffffffffffffffffff\n      and\n      mul\n      or\n      swap1\n      sstore\n      pop\n      swap2\n      0x20\n      add\n      swap2\n      swap1\n      0x01\n      add\n      swap1\n      jump(tag_76)\n    tag_77:\n    tag_75:\n      pop\n      swap1\n      pop\n      tag_78\n      swap2\n      swap1\n      tag_79\n      jump\t// in\n    tag_78:\n      pop\n      swap1\n      jump\t// out\n    tag_79:\n    tag_80:\n      dup1\n      dup3\n      gt\n      iszero\n      tag_81\n      jumpi\n      0x00\n      dup2\n      0x00\n      swap1\n      sstore\n      pop\n      0x01\n      add\n      jump(tag_80)\n    tag_81:\n      pop\n      swap1\n      jump\t// out\n        /* \"#utility.yul\":88:205   */\n    tag_83:\n        /* \"#utility.yul\":197:198   */\n      0x00\n        /* \"#utility.yul\":194:195   */\n      dup1\n        /* \"#utility.yul\":187:199   */\n      revert\n        /* \"#utility.yul\":334:460   */\n    tag_85:\n        /* \"#utility.yul\":371:378   */\n      0x00\n        /* \"#utility.yul\":411:453   */\n      0xffffffffffffffffffffffffffffffffffffffff\n        /* \"#utility.yul\":404:409   */\n      dup3\n        /* \"#utility.yul\":400:454   */\n      and\n        /* \"#utility.yul\":389:454   */\n      swap1\n      pop\n        /* \"#utility.yul\":334:460   */\n      swap2\n      swap1\n      pop\n      jump\t// out\n        /* \"#utility.yul\":466:562   */\n    tag_86:\n        /* \"#utility.yul\":503:510   */\n      0x00\n        /* \"#utility.yul\":532:556   */\n      tag_116\n        /* \"#utility.yul\":550:555   */\n      dup3\n        /* \"#utility.yul\":532:556   */\n      tag_85\n      jump\t// in\n    tag_116:\n        /* \"#utility.yul\":521:556   */\n      swap1\n      pop\n        /* \"#utility.yul\":466:562   */\n      swap2\n      swap1\n      pop\n      jump\t// out\n        /* \"#utility.yul\":568:690   */\n    tag_87:\n        /* \"#utility.yul\":641:665   */\n      tag_118\n        /* \"#utility.yul\":659:664   */\n      dup2\n        /* \"#utility.yul\":641:665   */\n      tag_86\n      jump\t// in\n    tag_118:\n        /* \"#utility.yul\":634:639   */\n      dup2\n        /* \"#utility.yul\":631:666   */\n      eq\n        /* \"#utility.yul\":621:684   */\n      tag_119\n      jumpi\n        /* \"#utility.yul\":680:681   */\n      0x00\n        /* \"#utility.yul\":677:678   */\n      dup1\n        /* \"#utility.yul\":670:682   */\n      revert\n        /* \"#utility.yul\":621:684   */\n    tag_119:\n        /* \"#utility.yul\":568:690   */\n      pop\n      jump\t// out\n        /* \"#utility.yul\":696:835   */\n    tag_88:\n        /* \"#utility.yul\":742:747   */\n      0x00\n        /* \"#utility.yul\":780:786   */\n      dup2\n        /* \"#utility.yul\":767:787   */\n      calldataload\n        /* \"#utility.yul\":758:787   */\n      swap1\n      pop\n        /* \"#utility.yul\":796:829   */\n      tag_121\n        /* \"#utility.yul\":823:828   */\n      dup2\n        /* \"#utility.yul\":796:829   */\n      tag_87\n      jump\t// in\n    tag_121:\n        /* \"#utility.yul\":696:835   */\n      swap3\n      swap2\n      pop\n      pop\n      jump\t// out\n        /* \"#utility.yul\":841:1170   */\n    tag_13:\n        /* \"#utility.yul\":900:906   */\n      0x00\n        /* \"#utility.yul\":949:951   */\n      0x20\n        /* \"#utility.yul\":937:946   */\n      dup3\n        /* \"#utility.yul\":928:935   */\n      dup5\n        /* \"#utility.yul\":924:947   */\n      sub\n        /* \"#utility.yul\":920:952   */\n      slt\n        /* \"#utility.yul\":917:1036   */\n      iszero\n      tag_123\n      jumpi\n        /* \"#utility.yul\":955:1034   */\n      tag_124\n      tag_83\n      jump\t// in\n    tag_124:\n        /* \"#utility.yul\":917:1036   */\n    tag_123:\n        /* \"#utility.yul\":1075:1076   */\n      0x00\n        /* \"#utility.yul\":1100:1153   */\n      tag_125\n        /* \"#utility.yul\":1145:1152   */\n      dup5\n        /* \"#utility.yul\":1136:1142   */\n      dup3\n        /* \"#utility.yul\":1125:1134   */\n      dup6\n        /* \"#utility.yul\":1121:1143   */\n      add\n        /* \"#utility.yul\":1100:1153   */\n      tag_88\n      jump\t// in\n    tag_125:\n        /* \"#utility.yul\":1090:1153   */\n      swap2\n      pop\n        /* \"#utility.yul\":1046:1163   */\n      pop\n        /* \"#utility.yul\":841:1170   */\n      swap3\n      swap2\n      pop\n      pop\n      jump\t// out\n        /* \"#utility.yul\":1176:1253   */\n    tag_89:\n        /* \"#utility.yul\":1213:1220   */\n      0x00\n        /* \"#utility.yul\":1242:1247   */\n      dup2\n        /* \"#utility.yul\":1231:1247   */\n      swap1\n      pop\n        /* \"#utility.yul\":1176:1253   */\n      swap2\n      swap1\n      pop\n      jump\t// out\n        /* \"#utility.yul\":1259:1377   */\n    tag_90:\n        /* \"#utility.yul\":1346:1370   */\n      tag_128\n        /* \"#utility.yul\":1364:1369   */\n      dup2\n        /* \"#utility.yul\":1346:1370   */\n      tag_89\n      jump\t// in\n    tag_128:\n        /* \"#utility.yul\":1341:1344   */\n      dup3\n        /* \"#utility.yul\":1334:1371   */\n      mstore\n        /* \"#utility.yul\":1259:1377   */\n      pop\n      pop\n      jump\t// out\n        /* \"#utility.yul\":1383:1605   */\n    tag_16:\n        /* \"#utility.yul\":1476:1480   */\n      0x00\n        /* \"#utility.yul\":1514:1516   */\n      0x20\n        /* \"#utility.yul\":1503:1512   */\n      dup3\n        /* \"#utility.yul\":1499:1517   */\n      add\n        /* \"#utility.yul\":1491:1517   */\n      swap1\n      pop\n        /* \"#utility.yul\":1527:1598   */\n      tag_130\n        /* \"#utility.yul\":1595:1596   */\n      0x00\n        /* \"#utility.yul\":1584:1593   */\n      dup4\n        /* \"#utility.yul\":1580:1597   */\n      add\n        /* \"#utility.yul\":1571:1577   */\n      dup5\n        /* \"#utility.yul\":1527:1598   */\n      tag_90\n      jump\t// in\n    tag_130:\n        /* \"#utility.yul\":1383:1605   */\n      swap3\n      swap2\n      pop\n      pop\n      jump\t// out\n        /* \"#utility.yul\":1611:1729   */\n    tag_91:\n        /* \"#utility.yul\":1698:1722   */\n      tag_132\n        /* \"#utility.yul\":1716:1721   */\n      dup2\n        /* \"#utility.yul\":1698:1722   */\n      tag_86\n      jump\t// in\n    tag_132:\n        /* \"#utility.yul\":1693:1696   */\n      dup3\n        /* \"#utility.yul\":1686:1723   */\n      mstore\n        /* \"#utility.yul\":1611:1729   */\n      pop\n      pop\n      jump\t// out\n        /* \"#utility.yul\":1735:1957   */\n    tag_27:\n        /* \"#utility.yul\":1828:1832   */\n      0x00\n        /* \"#utility.yul\":1866:1868   */\n      0x20\n        /* \"#utility.yul\":1855:1864   */\n      dup3\n        /* \"#utility.yul\":1851:1869   */\n      add\n        /* \"#utility.yul\":1843:1869   */\n      swap1\n      pop\n        /* \"#utility.yul\":1879:1950   */\n      tag_134\n        /* \"#utility.yul\":1947:1948   */\n      0x00\n        /* \"#utility.yul\":1936:1945   */\n      dup4\n        /* \"#utility.yul\":1932:1949   */\n      add\n        /* \"#utility.yul\":1923:1929   */\n      dup5\n        /* \"#utility.yul\":1879:1950   */\n      tag_91\n      jump\t// in\n    tag_134:\n        /* \"#utility.yul\":1735:1957   */\n      swap3\n      swap2\n      pop\n      pop\n      jump\t// out\n        /* \"#utility.yul\":1963:2143   */\n    tag_36:\n        /* \"#utility.yul\":2011:2088   */\n      0x4e487b7100000000000000000000000000000000000000000000000000000000\n        /* \"#utility.yul\":2008:2009   */\n      0x00\n        /* \"#utility.yul\":2001:2089   */\n      mstore\n        /* \"#utility.yul\":2108:2112   */\n      0x32\n        /* \"#utility.yul\":2105:2106   */\n      0x04\n        /* \"#utility.yul\":2098:2113   */\n      mstore\n        /* \"#utility.yul\":2132:2136   */\n      0x24\n        /* \"#utility.yul\":2129:2130   */\n      0x00\n        /* \"#utility.yul\":2122:2137   */\n      revert\n        /* \"#utility.yul\":2149:2329   */\n    tag_40:\n        /* \"#utility.yul\":2197:2274   */\n      0x4e487b7100000000000000000000000000000000000000000000000000000000\n        /* \"#utility.yul\":2194:2195   */\n      0x00\n        /* \"#utility.yul\":2187:2275   */\n      mstore\n        /* \"#utility.yul\":2294:2298   */\n      0x41\n        /* \"#utility.yul\":2291:2292   */\n      0x04\n        /* \"#utility.yul\":2284:2299   */\n      mstore\n        /* \"#utility.yul\":2318:2322   */\n      0x24\n        /* \"#utility.yul\":2315:2316   */\n      0x00\n        /* \"#utility.yul\":2308:2323   */\n      revert\n        /* \"#utility.yul\":2335:2482   */\n    tag_92:\n        /* \"#utility.yul\":2436:2447   */\n      0x00\n        /* \"#utility.yul\":2473:2476   */\n      dup2\n        /* \"#utility.yul\":2458:2476   */\n      swap1\n      pop\n        /* \"#utility.yul\":2335:2482   */\n      swap3\n      swap2\n      pop\n      pop\n      jump\t// out\n        /* \"#utility.yul\":2488:2602   */\n    tag_93:\n      pop\n      jump\t// out\n        /* \"#utility.yul\":2608:3006   */\n    tag_94:\n        /* \"#utility.yul\":2767:2770   */\n      0x00\n        /* \"#utility.yul\":2788:2871   */\n      tag_140\n        /* \"#utility.yul\":2869:2870   */\n      0x00\n        /* \"#utility.yul\":2864:2867   */\n      dup4\n        /* \"#utility.yul\":2788:2871   */\n      tag_92\n      jump\t// in\n    tag_140:\n        /* \"#utility.yul\":2781:2871   */\n      swap2\n      pop\n        /* \"#utility.yul\":2880:2973   */\n      tag_141\n        /* \"#utility.yul\":2969:2972   */\n      dup3\n        /* \"#utility.yul\":2880:2973   */\n      tag_93\n      jump\t// in\n    tag_141:\n        /* \"#utility.yul\":2998:2999   */\n      0x00\n        /* \"#utility.yul\":2993:2996   */\n      dup3\n        /* \"#utility.yul\":2989:3000   */\n      add\n        /* \"#utility.yul\":2982:3000   */\n      swap1\n      pop\n        /* \"#utility.yul\":2608:3006   */\n      swap2\n      swap1\n      pop\n      jump\t// out\n        /* \"#utility.yul\":3012:3391   */\n    tag_45:\n        /* \"#utility.yul\":3196:3199   */\n      0x00\n        /* \"#utility.yul\":3218:3365   */\n      tag_143\n        /* \"#utility.yul\":3361:3364   */\n      dup3\n        /* \"#utility.yul\":3218:3365   */\n      tag_94\n      jump\t// in\n    tag_143:\n        /* \"#utility.yul\":3211:3365   */\n      swap2\n      pop\n        /* \"#utility.yul\":3382:3385   */\n      dup2\n        /* \"#utility.yul\":3375:3385   */\n      swap1\n      pop\n        /* \"#utility.yul\":3012:3391   */\n      swap2\n      swap1\n      pop\n      jump\t// out\n        /* \"#utility.yul\":3397:3566   */\n    tag_95:\n        /* \"#utility.yul\":3481:3492   */\n      0x00\n        /* \"#utility.yul\":3515:3521   */\n      dup3\n        /* \"#utility.yul\":3510:3513   */\n      dup3\n        /* \"#utility.yul\":3503:3522   */\n      mstore\n        /* \"#utility.yul\":3555:3559   */\n      0x20\n        /* \"#utility.yul\":3550:3553   */\n      dup3\n        /* \"#utility.yul\":3546:3560   */\n      add\n        /* \"#utility.yul\":3531:3560   */\n      swap1\n      pop\n        /* \"#utility.yul\":3397:3566   */\n      swap3\n      swap2\n      pop\n      pop\n      jump\t// out\n        /* \"#utility.yul\":3572:3733   */\n    tag_96:\n        /* \"#utility.yul\":3712:3725   */\n      0x63616c6c206661696c6564000000000000000000000000000000000000000000\n        /* \"#utility.yul\":3708:3709   */\n      0x00\n        /* \"#utility.yul\":3700:3706   */\n      dup3\n        /* \"#utility.yul\":3696:3710   */\n      add\n        /* \"#utility.yul\":3689:3726   */\n      mstore\n        /* \"#utility.yul\":3572:3733   */\n      pop\n      jump\t// out\n        /* \"#utility.yul\":3739:4105   */\n    tag_97:\n        /* \"#utility.yul\":3881:3884   */\n      0x00\n        /* \"#utility.yul\":3902:3969   */\n      tag_147\n        /* \"#utility.yul\":3966:3968   */\n      0x0b\n        /* \"#utility.yul\":3961:3964   */\n      dup4\n        /* \"#utility.yul\":3902:3969   */\n      tag_95\n      jump\t// in\n    tag_147:\n        /* \"#utility.yul\":3895:3969   */\n      swap2\n      pop\n        /* \"#utility.yul\":3978:4071   */\n      tag_148\n        /* \"#utility.yul\":4067:4070   */\n      dup3\n        /* \"#utility.yul\":3978:4071   */\n      tag_96\n      jump\t// in\n    tag_148:\n        /* \"#utility.yul\":4096:4098   */\n      0x20\n        /* \"#utility.yul\":4091:4094   */\n      dup3\n        /* \"#utility.yul\":4087:4099   */\n      add\n        /* \"#utility.yul\":4080:4099   */\n      swap1\n      pop\n        /* \"#utility.yul\":3739:4105   */\n      swap2\n      swap1\n      pop\n      jump\t// out\n        /* \"#utility.yul\":4111:4530   */\n    tag_51:\n        /* \"#utility.yul\":4277:4281   */\n      0x00\n        /* \"#utility.yul\":4315:4317   */\n      0x20\n        /* \"#utility.yul\":4304:4313   */\n      dup3\n        /* \"#utility.yul\":4300:4318   */\n      add\n        /* \"#utility.yul\":4292:4318   */\n      swap1\n      pop\n        /* \"#utility.yul\":4364:4373   */\n      dup2\n        /* \"#utility.yul\":4358:4362   */\n      dup2\n        /* \"#utility.yul\":4354:4374   */\n      sub\n        /* \"#utility.yul\":4350:4351   */\n      0x00\n        /* \"#utility.yul\":4339:4348   */\n      dup4\n        /* \"#utility.yul\":4335:4352   */\n      add\n        /* \"#utility.yul\":4328:4375   */\n      mstore\n        /* \"#utility.yul\":4392:4523   */\n      tag_150\n        /* \"#utility.yul\":4518:4522   */\n      dup2\n        /* \"#utility.yul\":4392:4523   */\n      tag_97\n      jump\t// in\n    tag_150:\n        /* \"#utility.yul\":4384:4523   */\n      swap1\n      pop\n        /* \"#utility.yul\":4111:4530   */\n      swap2\n      swap1\n      pop\n      jump\t// out\n        /* \"#utility.yul\":4536:4708   */\n    tag_98:\n        /* \"#utility.yul\":4676:4700   */\n      0x6469646e27742073656e6420656e6f7567682045544800000000000000000000\n        /* \"#utility.yul\":4672:4673   */\n      0x00\n        /* \"#utility.yul\":4664:4670   */\n      dup3\n        /* \"#utility.yul\":4660:4674   */\n      add\n        /* \"#utility.yul\":4653:4701   */\n      mstore\n        /* \"#utility.yul\":4536:4708   */\n      pop\n      jump\t// out\n        /* \"#utility.yul\":4714:5080   */\n    tag_99:\n        /* \"#utility.yul\":4856:4859   */\n      0x00\n        /* \"#utility.yul\":4877:4944   */\n      tag_153\n        /* \"#utility.yul\":4941:4943   */\n      0x16\n        /* \"#utility.yul\":4936:4939   */\n      dup4\n        /* \"#utility.yul\":4877:4944   */\n      tag_95\n      jump\t// in\n    tag_153:\n        /* \"#utility.yul\":4870:4944   */\n      swap2\n      pop\n        /* \"#utility.yul\":4953:5046   */\n      tag_154\n        /* \"#utility.yul\":5042:5045   */\n      dup3\n        /* \"#utility.yul\":4953:5046   */\n      tag_98\n      jump\t// in\n    tag_154:\n        /* \"#utility.yul\":5071:5073   */\n      0x20\n        /* \"#utility.yul\":5066:5069   */\n      dup3\n        /* \"#utility.yul\":5062:5074   */\n      add\n        /* \"#utility.yul\":5055:5074   */\n      swap1\n      pop\n        /* \"#utility.yul\":4714:5080   */\n      swap2\n      swap1\n      pop\n      jump\t// out\n        /* \"#utility.yul\":5086:5505   */\n    tag_57:\n        /* \"#utility.yul\":5252:5256   */\n      0x00\n        /* \"#utility.yul\":5290:5292   */\n      0x20\n        /* \"#utility.yul\":5279:5288   */\n      dup3\n        /* \"#utility.yul\":5275:5293   */\n      add\n        /* \"#utility.yul\":5267:5293   */\n      swap1\n      pop\n        /* \"#utility.yul\":5339:5348   */\n      dup2\n        /* \"#utility.yul\":5333:5337   */\n      dup2\n        /* \"#utility.yul\":5329:5349   */\n      sub\n        /* \"#utility.yul\":5325:5326   */\n      0x00\n        /* \"#utility.yul\":5314:5323   */\n      dup4\n        /* \"#utility.yul\":5310:5327   */\n      add\n        /* \"#utility.yul\":5303:5350   */\n      mstore\n        /* \"#utility.yul\":5367:5498   */\n      tag_156\n        /* \"#utility.yul\":5493:5497   */\n      dup2\n        /* \"#utility.yul\":5367:5498   */\n      tag_99\n      jump\t// in\n    tag_156:\n        /* \"#utility.yul\":5359:5498   */\n      swap1\n      pop\n        /* \"#utility.yul\":5086:5505   */\n      swap2\n      swap1\n      pop\n      jump\t// out\n        /* \"#utility.yul\":5511:5691   */\n    tag_100:\n        /* \"#utility.yul\":5559:5636   */\n      0x4e487b7100000000000000000000000000000000000000000000000000000000\n        /* \"#utility.yul\":5556:5557   */\n      0x00\n        /* \"#utility.yul\":5549:5637   */\n      mstore\n        /* \"#utility.yul\":5656:5660   */\n      0x11\n        /* \"#utility.yul\":5653:5654   */\n      0x04\n        /* \"#utility.yul\":5646:5661   */\n      mstore\n        /* \"#utility.yul\":5680:5684   */\n      0x24\n        /* \"#utility.yul\":5677:5678   */\n      0x00\n        /* \"#utility.yul\":5670:5685   */\n      revert\n        /* \"#utility.yul\":5697:5888   */\n    tag_60:\n        /* \"#utility.yul\":5737:5740   */\n      0x00\n        /* \"#utility.yul\":5756:5776   */\n      tag_159\n        /* \"#utility.yul\":5774:5775   */\n      dup3\n        /* \"#utility.yul\":5756:5776   */\n      tag_89\n      jump\t// in\n    tag_159:\n        /* \"#utility.yul\":5751:5776   */\n      swap2\n      pop\n        /* \"#utility.yul\":5790:5810   */\n      tag_160\n        /* \"#utility.yul\":5808:5809   */\n      dup4\n        /* \"#utility.yul\":5790:5810   */\n      tag_89\n      jump\t// in\n    tag_160:\n        /* \"#utility.yul\":5785:5810   */\n      swap3\n      pop\n        /* \"#utility.yul\":5833:5834   */\n      dup3\n        /* \"#utility.yul\":5830:5831   */\n      dup3\n        /* \"#utility.yul\":5826:5835   */\n      add\n        /* \"#utility.yul\":5819:5835   */\n      swap1\n      pop\n        /* \"#utility.yul\":5854:5857   */\n      dup1\n        /* \"#utility.yul\":5851:5852   */\n      dup3\n        /* \"#utility.yul\":5848:5858   */\n      gt\n        /* \"#utility.yul\":5845:5881   */\n      iszero\n      tag_161\n      jumpi\n        /* \"#utility.yul\":5861:5879   */\n      tag_162\n      tag_100\n      jump\t// in\n    tag_162:\n        /* \"#utility.yul\":5845:5881   */\n    tag_161:\n        /* \"#utility.yul\":5697:5888   */\n      swap3\n      swap2\n      pop\n      pop\n      jump\t// out\n        /* \"#utility.yul\":5894:6304   */\n    tag_65:\n        /* \"#utility.yul\":5934:5941   */\n      0x00\n        /* \"#utility.yul\":5957:5977   */\n      tag_164\n        /* \"#utility.yul\":5975:5976   */\n      dup3\n        /* \"#utility.yul\":5957:5977   */\n      tag_89\n      jump\t// in\n    tag_164:\n        /* \"#utility.yul\":5952:5977   */\n      swap2\n      pop\n        /* \"#utility.yul\":5991:6011   */\n      tag_165\n        /* \"#utility.yul\":6009:6010   */\n      dup4\n        /* \"#utility.yul\":5991:6011   */\n      tag_89\n      jump\t// in\n    tag_165:\n        /* \"#utility.yul\":5986:6011   */\n      swap3\n      pop\n        /* \"#utility.yul\":6046:6047   */\n      dup3\n        /* \"#utility.yul\":6043:6044   */\n      dup3\n        /* \"#utility.yul\":6039:6048   */\n      mul\n        /* \"#utility.yul\":6068:6098   */\n      tag_166\n        /* \"#utility.yul\":6086:6097   */\n      dup2\n        /* \"#utility.yul\":6068:6098   */\n      tag_89\n      jump\t// in\n    tag_166:\n        /* \"#utility.yul\":6057:6098   */\n      swap2\n      pop\n        /* \"#utility.yul\":6247:6248   */\n      dup3\n        /* \"#utility.yul\":6238:6245   */\n      dup3\n        /* \"#utility.yul\":6234:6249   */\n      div\n        /* \"#utility.yul\":6231:6232   */\n      dup5\n        /* \"#utility.yul\":6228:6250   */\n      eq\n        /* \"#utility.yul\":6208:6209   */\n      dup4\n        /* \"#utility.yul\":6201:6210   */\n      iszero\n        /* \"#utility.yul\":6181:6264   */\n      or\n        /* \"#utility.yul\":6158:6297   */\n      tag_167\n      jumpi\n        /* \"#utility.yul\":6277:6295   */\n      tag_168\n      tag_100\n      jump\t// in\n    tag_168:\n        /* \"#utility.yul\":6158:6297   */\n    tag_167:\n        /* \"#utility.yul\":5942:6304   */\n      pop\n        /* \"#utility.yul\":5894:6304   */\n      swap3\n      swap2\n      pop\n      pop\n      jump\t// out\n        /* \"#utility.yul\":6310:6490   */\n    tag_101:\n        /* \"#utility.yul\":6358:6435   */\n      0x4e487b7100000000000000000000000000000000000000000000000000000000\n        /* \"#utility.yul\":6355:6356   */\n      0x00\n        /* \"#utility.yul\":6348:6436   */\n      mstore\n        /* \"#utility.yul\":6455:6459   */\n      0x12\n        /* \"#utility.yul\":6452:6453   */\n      0x04\n        /* \"#utility.yul\":6445:6460   */\n      mstore\n        /* \"#utility.yul\":6479:6483   */\n      0x24\n        /* \"#utility.yul\":6476:6477   */\n      0x00\n        /* \"#utility.yul\":6469:6484   */\n      revert\n        /* \"#utility.yul\":6496:6681   */\n    tag_67:\n        /* \"#utility.yul\":6536:6537   */\n      0x00\n        /* \"#utility.yul\":6553:6573   */\n      tag_171\n        /* \"#utility.yul\":6571:6572   */\n      dup3\n        /* \"#utility.yul\":6553:6573   */\n      tag_89\n      jump\t// in\n    tag_171:\n        /* \"#utility.yul\":6548:6573   */\n      swap2\n      pop\n        /* \"#utility.yul\":6587:6607   */\n      tag_172\n        /* \"#utility.yul\":6605:6606   */\n      dup4\n        /* \"#utility.yul\":6587:6607   */\n      tag_89\n      jump\t// in\n    tag_172:\n        /* \"#utility.yul\":6582:6607   */\n      swap3\n      pop\n        /* \"#utility.yul\":6626:6627   */\n      dup3\n        /* \"#utility.yul\":6616:6651   */\n      tag_173\n      jumpi\n        /* \"#utility.yul\":6631:6649   */\n      tag_174\n      tag_101\n      jump\t// in\n    tag_174:\n        /* \"#utility.yul\":6616:6651   */\n    tag_173:\n        /* \"#utility.yul\":6673:6674   */\n      dup3\n        /* \"#utility.yul\":6670:6671   */\n      dup3\n        /* \"#utility.yul\":6666:6675   */\n      div\n        /* \"#utility.yul\":6661:6675   */\n      swap1\n      pop\n        /* \"#utility.yul\":6496:6681   */\n      swap3\n      swap2\n      pop\n      pop\n      jump\t// out\n        /* \"#utility.yul\":6687:6792   */\n    tag_102:\n        /* \"#utility.yul\":6723:6730   */\n      0x00\n        /* \"#utility.yul\":6763:6785   */\n      0xffffffffffffffffffff\n        /* \"#utility.yul\":6756:6761   */\n      dup3\n        /* \"#utility.yul\":6752:6786   */\n      and\n        /* \"#utility.yul\":6741:6786   */\n      swap1\n      pop\n        /* \"#utility.yul\":6687:6792   */\n      swap2\n      swap1\n      pop\n      jump\t// out\n        /* \"#utility.yul\":6798:6918   */\n    tag_103:\n        /* \"#utility.yul\":6870:6893   */\n      tag_177\n        /* \"#utility.yul\":6887:6892   */\n      dup2\n        /* \"#utility.yul\":6870:6893   */\n      tag_102\n      jump\t// in\n    tag_177:\n        /* \"#utility.yul\":6863:6868   */\n      dup2\n        /* \"#utility.yul\":6860:6894   */\n      eq\n        /* \"#utility.yul\":6850:6912   */\n      tag_178\n      jumpi\n        /* \"#utility.yul\":6908:6909   */\n      0x00\n        /* \"#utility.yul\":6905:6906   */\n      dup1\n        /* \"#utility.yul\":6898:6910   */\n      revert\n        /* \"#utility.yul\":6850:6912   */\n    tag_178:\n        /* \"#utility.yul\":6798:6918   */\n      pop\n      jump\t// out\n        /* \"#utility.yul\":6924:7065   */\n    tag_104:\n        /* \"#utility.yul\":6980:6985   */\n      0x00\n        /* \"#utility.yul\":7011:7017   */\n      dup2\n        /* \"#utility.yul\":7005:7018   */\n      mload\n        /* \"#utility.yul\":6996:7018   */\n      swap1\n      pop\n        /* \"#utility.yul\":7027:7059   */\n      tag_180\n        /* \"#utility.yul\":7053:7058   */\n      dup2\n        /* \"#utility.yul\":7027:7059   */\n      tag_103\n      jump\t// in\n    tag_180:\n        /* \"#utility.yul\":6924:7065   */\n      swap3\n      swap2\n      pop\n      pop\n      jump\t// out\n        /* \"#utility.yul\":7071:7147   */\n    tag_105:\n        /* \"#utility.yul\":7107:7114   */\n      0x00\n        /* \"#utility.yul\":7136:7141   */\n      dup2\n        /* \"#utility.yul\":7125:7141   */\n      swap1\n      pop\n        /* \"#utility.yul\":7071:7147   */\n      swap2\n      swap1\n      pop\n      jump\t// out\n        /* \"#utility.yul\":7153:7273   */\n    tag_106:\n        /* \"#utility.yul\":7225:7248   */\n      tag_183\n        /* \"#utility.yul\":7242:7247   */\n      dup2\n        /* \"#utility.yul\":7225:7248   */\n      tag_105\n      jump\t// in\n    tag_183:\n        /* \"#utility.yul\":7218:7223   */\n      dup2\n        /* \"#utility.yul\":7215:7249   */\n      eq\n        /* \"#utility.yul\":7205:7267   */\n      tag_184\n      jumpi\n        /* \"#utility.yul\":7263:7264   */\n      0x00\n        /* \"#utility.yul\":7260:7261   */\n      dup1\n        /* \"#utility.yul\":7253:7265   */\n      revert\n        /* \"#utility.yul\":7205:7267   */\n    tag_184:\n        /* \"#utility.yul\":7153:7273   */\n      pop\n      jump\t// out\n        /* \"#utility.yul\":7279:7420   */\n    tag_107:\n        /* \"#utility.yul\":7335:7340   */\n      0x00\n        /* \"#utility.yul\":7366:7372   */\n      dup2\n        /* \"#utility.yul\":7360:7373   */\n      mload\n        /* \"#utility.yul\":7351:7373   */\n      swap1\n      pop\n        /* \"#utility.yul\":7382:7414   */\n      tag_186\n        /* \"#utility.yul\":7408:7413   */\n      dup2\n        /* \"#utility.yul\":7382:7414   */\n      tag_106\n      jump\t// in\n    tag_186:\n        /* \"#utility.yul\":7279:7420   */\n      swap3\n      swap2\n      pop\n      pop\n      jump\t// out\n        /* \"#utility.yul\":7426:7548   */\n    tag_108:\n        /* \"#utility.yul\":7499:7523   */\n      tag_188\n        /* \"#utility.yul\":7517:7522   */\n      dup2\n        /* \"#utility.yul\":7499:7523   */\n      tag_89\n      jump\t// in\n    tag_188:\n        /* \"#utility.yul\":7492:7497   */\n      dup2\n        /* \"#utility.yul\":7489:7524   */\n      eq\n        /* \"#utility.yul\":7479:7542   */\n      tag_189\n      jumpi\n        /* \"#utility.yul\":7538:7539   */\n      0x00\n        /* \"#utility.yul\":7535:7536   */\n      dup1\n        /* \"#utility.yul\":7528:7540   */\n      revert\n        /* \"#utility.yul\":7479:7542   */\n    tag_189:\n        /* \"#utility.yul\":7426:7548   */\n      pop\n      jump\t// out\n        /* \"#utility.yul\":7554:7697   */\n    tag_109:\n        /* \"#utility.yul\":7611:7616   */\n      0x00\n        /* \"#utility.yul\":7642:7648   */\n      dup2\n        /* \"#utility.yul\":7636:7649   */\n      mload\n        /* \"#utility.yul\":7627:7649   */\n      swap1\n      pop\n        /* \"#utility.yul\":7658:7691   */\n      tag_191\n        /* \"#utility.yul\":7685:7690   */\n      dup2\n        /* \"#utility.yul\":7658:7691   */\n      tag_108\n      jump\t// in\n    tag_191:\n        /* \"#utility.yul\":7554:7697   */\n      swap3\n      swap2\n      pop\n      pop\n      jump\t// out\n        /* \"#utility.yul\":7703:8674   */\n    tag_72:\n        /* \"#utility.yul\":7806:7812   */\n      0x00\n        /* \"#utility.yul\":7814:7820   */\n      dup1\n        /* \"#utility.yul\":7822:7828   */\n      0x00\n        /* \"#utility.yul\":7830:7836   */\n      dup1\n        /* \"#utility.yul\":7838:7844   */\n      0x00\n        /* \"#utility.yul\":7887:7890   */\n      0xa0\n        /* \"#utility.yul\":7875:7884   */\n      dup7\n        /* \"#utility.yul\":7866:7873   */\n      dup9\n        /* \"#utility.yul\":7862:7885   */\n      sub\n        /* \"#utility.yul\":7858:7891   */\n      slt\n        /* \"#utility.yul\":7855:7975   */\n      iszero\n      tag_193\n      jumpi\n        /* \"#utility.yul\":7894:7973   */\n      tag_194\n      tag_83\n      jump\t// in\n    tag_194:\n        /* \"#utility.yul\":7855:7975   */\n    tag_193:\n        /* \"#utility.yul\":8014:8015   */\n      0x00\n        /* \"#utility.yul\":8039:8102   */\n      tag_195\n        /* \"#utility.yul\":8094:8101   */\n      dup9\n        /* \"#utility.yul\":8085:8091   */\n      dup3\n        /* \"#utility.yul\":8074:8083   */\n      dup10\n        /* \"#utility.yul\":8070:8092   */\n      add\n        /* \"#utility.yul\":8039:8102   */\n      tag_104\n      jump\t// in\n    tag_195:\n        /* \"#utility.yul\":8029:8102   */\n      swap6\n      pop\n        /* \"#utility.yul\":7985:8112   */\n      pop\n        /* \"#utility.yul\":8151:8153   */\n      0x20\n        /* \"#utility.yul\":8177:8240   */\n      tag_196\n        /* \"#utility.yul\":8232:8239   */\n      dup9\n        /* \"#utility.yul\":8223:8229   */\n      dup3\n        /* \"#utility.yul\":8212:8221   */\n      dup10\n        /* \"#utility.yul\":8208:8230   */\n      add\n        /* \"#utility.yul\":8177:8240   */\n      tag_107\n      jump\t// in\n    tag_196:\n        /* \"#utility.yul\":8167:8240   */\n      swap5\n      pop\n        /* \"#utility.yul\":8122:8250   */\n      pop\n        /* \"#utility.yul\":8289:8291   */\n      0x40\n        /* \"#utility.yul\":8315:8379   */\n      tag_197\n        /* \"#utility.yul\":8371:8378   */\n      dup9\n        /* \"#utility.yul\":8362:8368   */\n      dup3\n        /* \"#utility.yul\":8351:8360   */\n      dup10\n        /* \"#utility.yul\":8347:8369   */\n      add\n        /* \"#utility.yul\":8315:8379   */\n      tag_109\n      jump\t// in\n    tag_197:\n        /* \"#utility.yul\":8305:8379   */\n      swap4\n      pop\n        /* \"#utility.yul\":8260:8389   */\n      pop\n        /* \"#utility.yul\":8428:8430   */\n      0x60\n        /* \"#utility.yul\":8454:8518   */\n      tag_198\n        /* \"#utility.yul\":8510:8517   */\n      dup9\n        /* \"#utility.yul\":8501:8507   */\n      dup3\n        /* \"#utility.yul\":8490:8499   */\n      dup10\n        /* \"#utility.yul\":8486:8508   */\n      add\n        /* \"#utility.yul\":8454:8518   */\n      tag_109\n      jump\t// in\n    tag_198:\n        /* \"#utility.yul\":8444:8518   */\n      swap3\n      pop\n        /* \"#utility.yul\":8399:8528   */\n      pop\n        /* \"#utility.yul\":8567:8570   */\n      0x80\n        /* \"#utility.yul\":8594:8657   */\n      tag_199\n        /* \"#utility.yul\":8649:8656   */\n      dup9\n        /* \"#utility.yul\":8640:8646   */\n      dup3\n        /* \"#utility.yul\":8629:8638   */\n      dup10\n        /* \"#utility.yul\":8625:8647   */\n      add\n        /* \"#utility.yul\":8594:8657   */\n      tag_104\n      jump\t// in\n    tag_199:\n        /* \"#utility.yul\":8584:8657   */\n      swap2\n      pop\n        /* \"#utility.yul\":8538:8667   */\n      pop\n        /* \"#utility.yul\":7703:8674   */\n      swap3\n      swap6\n      pop\n      swap3\n      swap6\n      swap1\n      swap4\n      pop\n      jump\t// out\n        /* \"#utility.yul\":8680:9236   */\n    tag_74:\n        /* \"#utility.yul\":8719:8726   */\n      0x00\n        /* \"#utility.yul\":8742:8761   */\n      tag_201\n        /* \"#utility.yul\":8759:8760   */\n      dup3\n        /* \"#utility.yul\":8742:8761   */\n      tag_105\n      jump\t// in\n    tag_201:\n        /* \"#utility.yul\":8737:8761   */\n      swap2\n      pop\n        /* \"#utility.yul\":8775:8794   */\n      tag_202\n        /* \"#utility.yul\":8792:8793   */\n      dup4\n        /* \"#utility.yul\":8775:8794   */\n      tag_105\n      jump\t// in\n    tag_202:\n        /* \"#utility.yul\":8770:8794   */\n      swap3\n      pop\n        /* \"#utility.yul\":8829:8830   */\n      dup3\n        /* \"#utility.yul\":8826:8827   */\n      dup3\n        /* \"#utility.yul\":8822:8831   */\n      mul\n        /* \"#utility.yul\":8851:8880   */\n      tag_203\n        /* \"#utility.yul\":8868:8879   */\n      dup2\n        /* \"#utility.yul\":8851:8880   */\n      tag_105\n      jump\t// in\n    tag_203:\n        /* \"#utility.yul\":8840:8880   */\n      swap2\n      pop\n        /* \"#utility.yul\":8938:9004   */\n      0x8000000000000000000000000000000000000000000000000000000000000000\n        /* \"#utility.yul\":8935:8936   */\n      dup5\n        /* \"#utility.yul\":8932:9005   */\n      eq\n        /* \"#utility.yul\":8928:8929   */\n      0x00\n        /* \"#utility.yul\":8925:8926   */\n      dup5\n        /* \"#utility.yul\":8921:8930   */\n      slt\n        /* \"#utility.yul\":8917:9006   */\n      and\n        /* \"#utility.yul\":8914:9029   */\n      iszero\n      tag_204\n      jumpi\n        /* \"#utility.yul\":9009:9027   */\n      tag_205\n      tag_100\n      jump\t// in\n    tag_205:\n        /* \"#utility.yul\":8914:9029   */\n    tag_204:\n        /* \"#utility.yul\":9179:9180   */\n      dup3\n        /* \"#utility.yul\":9170:9177   */\n      dup3\n        /* \"#utility.yul\":9165:9181   */\n      sdiv\n        /* \"#utility.yul\":9162:9163   */\n      dup5\n        /* \"#utility.yul\":9159:9182   */\n      eq\n        /* \"#utility.yul\":9139:9140   */\n      dup4\n        /* \"#utility.yul\":9132:9141   */\n      iszero\n        /* \"#utility.yul\":9112:9196   */\n      or\n        /* \"#utility.yul\":9089:9229   */\n      tag_206\n      jumpi\n        /* \"#utility.yul\":9209:9227   */\n      tag_207\n      tag_100\n      jump\t// in\n    tag_207:\n        /* \"#utility.yul\":9089:9229   */\n    tag_206:\n        /* \"#utility.yul\":8727:9236   */\n      pop\n        /* \"#utility.yul\":8680:9236   */\n      swap3\n      swap2\n      pop\n      pop\n      jump\t// out\n\n    auxdata: 0xa264697066735822122019a16535f6ea8f7e4c490f2ecbb8eb663358459747c29fbcc95ce248919fc66464736f6c634300081a0033\n}\n",
				"bytecode": {
					"linkReferences": {},
					"object": "60a0604052348015600e575f80fd5b503373ffffffffffffffffffffffffffffffffffffffff1660808173ffffffffffffffffffffffffffffffffffffffff1681525050608051610b0d6100615f395f818160ff01526104520152610b0d5ff3fe608060405260043610610049575f3560e01c80633ccfd60b1461004d5780633e47d6f3146100635780636b69a5921461009f578063b60d4288146100c9578063dba6335f146100d3575b5f80fd5b348015610058575f80fd5b506100616100fd565b005b34801561006e575f80fd5b5061008960048036038101906100849190610651565b610328565b6040516100969190610694565b60405180910390f35b3480156100aa575f80fd5b506100b361033d565b6040516100c09190610694565b60405180910390f35b6100d1610349565b005b3480156100de575f80fd5b506100e7610450565b6040516100f491906106bc565b60405180910390f35b7f000000000000000000000000000000000000000000000000000000000000000073ffffffffffffffffffffffffffffffffffffffff163373ffffffffffffffffffffffffffffffffffffffff1603610182576040517f30cd747100000000000000000000000000000000000000000000000000000000815260040160405180910390fd5b5f5b5f8054905081101561021e575f8082815481106101a4576101a36106d5565b5b905f5260205f20015f9054906101000a900473ffffffffffffffffffffffffffffffffffffffff1690505f60015f8373ffffffffffffffffffffffffffffffffffffffff1673ffffffffffffffffffffffffffffffffffffffff1681526020019081526020015f2081905550508080600101915050610184565b505f67ffffffffffffffff81111561023957610238610702565b5b6040519080825280602002602001820160405280156102675781602001602082028036833780820191505090505b505f908051906020019061027c929190610551565b505f3373ffffffffffffffffffffffffffffffffffffffff16476040516102a29061075c565b5f6040518083038185875af1925050503d805f81146102dc576040519150601f19603f3d011682016040523d82523d5f602084013e6102e1565b606091505b5050905080610325576040517f08c379a000000000000000000000000000000000000000000000000000000000815260040161031c906107ca565b60405180910390fd5b50565b6001602052805f5260405f205f915090505481565b674563918244f4000081565b674563918244f4000061035b34610474565b101561039c576040517f08c379a000000000000000000000000000000000000000000000000000000000815260040161039390610832565b60405180910390fd5b5f33908060018154018082558091505060019003905f5260205f20015f9091909190916101000a81548173ffffffffffffffffffffffffffffffffffffffff021916908373ffffffffffffffffffffffffffffffffffffffff1602179055503460015f3373ffffffffffffffffffffffffffffffffffffffff1673ffffffffffffffffffffffffffffffffffffffff1681526020019081526020015f205f828254610447919061087d565b92505081905550565b7f000000000000000000000000000000000000000000000000000000000000000081565b5f8061047e6104ac565b90505f670de0b6b3a7640000848361049691906108b0565b6104a0919061091e565b90508092505050919050565b5f80735f4ec3df9cbd43714fe2740f5e3616155c5b841990505f8173ffffffffffffffffffffffffffffffffffffffff1663feaf968c6040518163ffffffff1660e01b815260040160a060405180830381865afa15801561050f573d5f803e3d5ffd5b505050506040513d601f19601f8201168201806040525081019061053391906109ea565b5050509150506402540be4008161054a9190610a61565b9250505090565b828054828255905f5260205f209081019282156105c7579160200282015b828111156105c6578251825f6101000a81548173ffffffffffffffffffffffffffffffffffffffff021916908373ffffffffffffffffffffffffffffffffffffffff1602179055509160200191906001019061056f565b5b5090506105d491906105d8565b5090565b5b808211156105ef575f815f9055506001016105d9565b5090565b5f80fd5b5f73ffffffffffffffffffffffffffffffffffffffff82169050919050565b5f610620826105f7565b9050919050565b61063081610616565b811461063a575f80fd5b50565b5f8135905061064b81610627565b92915050565b5f60208284031215610666576106656105f3565b5b5f6106738482850161063d565b91505092915050565b5f819050919050565b61068e8161067c565b82525050565b5f6020820190506106a75f830184610685565b92915050565b6106b681610616565b82525050565b5f6020820190506106cf5f8301846106ad565b92915050565b7f4e487b71000000000000000000000000000000000000000000000000000000005f52603260045260245ffd5b7f4e487b71000000000000000000000000000000000000000000000000000000005f52604160045260245ffd5b5f81905092915050565b50565b5f6107475f8361072f565b915061075282610739565b5f82019050919050565b5f6107668261073c565b9150819050919050565b5f82825260208201905092915050565b7f63616c6c206661696c65640000000000000000000000000000000000000000005f82015250565b5f6107b4600b83610770565b91506107bf82610780565b602082019050919050565b5f6020820190508181035f8301526107e1816107a8565b9050919050565b7f6469646e27742073656e6420656e6f75676820455448000000000000000000005f82015250565b5f61081c601683610770565b9150610827826107e8565b602082019050919050565b5f6020820190508181035f83015261084981610810565b9050919050565b7f4e487b71000000000000000000000000000000000000000000000000000000005f52601160045260245ffd5b5f6108878261067c565b91506108928361067c565b92508282019050808211156108aa576108a9610850565b5b92915050565b5f6108ba8261067c565b91506108c58361067c565b92508282026108d38161067c565b915082820484148315176108ea576108e9610850565b5b5092915050565b7f4e487b71000000000000000000000000000000000000000000000000000000005f52601260045260245ffd5b5f6109288261067c565b91506109338361067c565b925082610943576109426108f1565b5b828204905092915050565b5f69ffffffffffffffffffff82169050919050565b61096c8161094e565b8114610976575f80fd5b50565b5f8151905061098781610963565b92915050565b5f819050919050565b61099f8161098d565b81146109a9575f80fd5b50565b5f815190506109ba81610996565b92915050565b6109c98161067c565b81146109d3575f80fd5b50565b5f815190506109e4816109c0565b92915050565b5f805f805f60a08688031215610a0357610a026105f3565b5b5f610a1088828901610979565b9550506020610a21888289016109ac565b9450506040610a32888289016109d6565b9350506060610a43888289016109d6565b9250506080610a5488828901610979565b9150509295509295909350565b5f610a6b8261098d565b9150610a768361098d565b9250828202610a848161098d565b91507f800000000000000000000000000000000000000000000000000000000000000084145f84121615610abb57610aba610850565b5b8282058414831517610ad057610acf610850565b5b509291505056fea264697066735822122019a16535f6ea8f7e4c490f2ecbb8eb663358459747c29fbcc95ce248919fc66464736f6c634300081a0033",
					"opcodes": "PUSH1 0xA0 PUSH1 0x40 MSTORE CALLVALUE DUP1 ISZERO PUSH1 0xE JUMPI PUSH0 DUP1 REVERT JUMPDEST POP CALLER PUSH20 0xFFFFFFFFFFFFFFFFFFFFFFFFFFFFFFFFFFFFFFFF AND PUSH1 0x80 DUP2 PUSH20 0xFFFFFFFFFFFFFFFFFFFFFFFFFFFFFFFFFFFFFFFF AND DUP2 MSTORE POP POP PUSH1 0x80 MLOAD PUSH2 0xB0D PUSH2 0x61 PUSH0 CODECOPY PUSH0 DUP2 DUP2 PUSH1 0xFF ADD MSTORE PUSH2 0x452 ADD MSTORE PUSH2 0xB0D PUSH0 RETURN INVALID PUSH1 0x80 PUSH1 0x40 MSTORE PUSH1 0x4 CALLDATASIZE LT PUSH2 0x49 JUMPI PUSH0 CALLDATALOAD PUSH1 0xE0 SHR DUP1 PUSH4 0x3CCFD60B EQ PUSH2 0x4D JUMPI DUP1 PUSH4 0x3E47D6F3 EQ PUSH2 0x63 JUMPI DUP1 PUSH4 0x6B69A592 EQ PUSH2 0x9F JUMPI DUP1 PUSH4 0xB60D4288 EQ PUSH2 0xC9 JUMPI DUP1 PUSH4 0xDBA6335F EQ PUSH2 0xD3 JUMPI JUMPDEST PUSH0 DUP1 REVERT JUMPDEST CALLVALUE DUP1 ISZERO PUSH2 0x58 JUMPI PUSH0 DUP1 REVERT JUMPDEST POP PUSH2 0x61 PUSH2 0xFD JUMP JUMPDEST STOP JUMPDEST CALLVALUE DUP1 ISZERO PUSH2 0x6E JUMPI PUSH0 DUP1 REVERT JUMPDEST POP PUSH2 0x89 PUSH1 0x4 DUP1 CALLDATASIZE SUB DUP2 ADD SWAP1 PUSH2 0x84 SWAP2 SWAP1 PUSH2 0x651 JUMP JUMPDEST PUSH2 0x328 JUMP JUMPDEST PUSH1 0x40 MLOAD PUSH2 0x96 SWAP2 SWAP1 PUSH2 0x694 JUMP JUMPDEST PUSH1 0x40 MLOAD DUP1 SWAP2 SUB SWAP1 RETURN JUMPDEST CALLVALUE DUP1 ISZERO PUSH2 0xAA JUMPI PUSH0 DUP1 REVERT JUMPDEST POP PUSH2 0xB3 PUSH2 0x33D JUMP JUMPDEST PUSH1 0x40 MLOAD PUSH2 0xC0 SWAP2 SWAP1 PUSH2 0x694 JUMP JUMPDEST PUSH1 0x40 MLOAD DUP1 SWAP2 SUB SWAP1 RETURN JUMPDEST PUSH2 0xD1 PUSH2 0x349 JUMP JUMPDEST STOP JUMPDEST CALLVALUE DUP1 ISZERO PUSH2 0xDE JUMPI PUSH0 DUP1 REVERT JUMPDEST POP PUSH2 0xE7 PUSH2 0x450 JUMP JUMPDEST PUSH1 0x40 MLOAD PUSH2 0xF4 SWAP2 SWAP1 PUSH2 0x6BC JUMP JUMPDEST PUSH1 0x40 MLOAD DUP1 SWAP2 SUB SWAP1 RETURN JUMPDEST PUSH32 0x0 PUSH20 0xFFFFFFFFFFFFFFFFFFFFFFFFFFFFFFFFFFFFFFFF AND CALLER PUSH20 0xFFFFFFFFFFFFFFFFFFFFFFFFFFFFFFFFFFFFFFFF AND SUB PUSH2 0x182 JUMPI PUSH1 0x40 MLOAD PUSH32 0x30CD747100000000000000000000000000000000000000000000000000000000 DUP2 MSTORE PUSH1 0x4 ADD PUSH1 0x40 MLOAD DUP1 SWAP2 SUB SWAP1 REVERT JUMPDEST PUSH0 JUMPDEST PUSH0 DUP1 SLOAD SWAP1 POP DUP2 LT ISZERO PUSH2 0x21E JUMPI PUSH0 DUP1 DUP3 DUP2 SLOAD DUP2 LT PUSH2 0x1A4 JUMPI PUSH2 0x1A3 PUSH2 0x6D5 JUMP JUMPDEST JUMPDEST SWAP1 PUSH0 MSTORE PUSH1 0x20 PUSH0 KECCAK256 ADD PUSH0 SWAP1 SLOAD SWAP1 PUSH2 0x100 EXP SWAP1 DIV PUSH20 0xFFFFFFFFFFFFFFFFFFFFFFFFFFFFFFFFFFFFFFFF AND SWAP1 POP PUSH0 PUSH1 0x1 PUSH0 DUP4 PUSH20 0xFFFFFFFFFFFFFFFFFFFFFFFFFFFFFFFFFFFFFFFF AND PUSH20 0xFFFFFFFFFFFFFFFFFFFFFFFFFFFFFFFFFFFFFFFF AND DUP2 MSTORE PUSH1 0x20 ADD SWAP1 DUP2 MSTORE PUSH1 0x20 ADD PUSH0 KECCAK256 DUP2 SWAP1 SSTORE POP POP DUP1 DUP1 PUSH1 0x1 ADD SWAP2 POP POP PUSH2 0x184 JUMP JUMPDEST POP PUSH0 PUSH8 0xFFFFFFFFFFFFFFFF DUP2 GT ISZERO PUSH2 0x239 JUMPI PUSH2 0x238 PUSH2 0x702 JUMP JUMPDEST JUMPDEST PUSH1 0x40 MLOAD SWAP1 DUP1 DUP3 MSTORE DUP1 PUSH1 0x20 MUL PUSH1 0x20 ADD DUP3 ADD PUSH1 0x40 MSTORE DUP1 ISZERO PUSH2 0x267 JUMPI DUP2 PUSH1 0x20 ADD PUSH1 0x20 DUP3 MUL DUP1 CALLDATASIZE DUP4 CALLDATACOPY DUP1 DUP3 ADD SWAP2 POP POP SWAP1 POP JUMPDEST POP PUSH0 SWAP1 DUP1 MLOAD SWAP1 PUSH1 0x20 ADD SWAP1 PUSH2 0x27C SWAP3 SWAP2 SWAP1 PUSH2 0x551 JUMP JUMPDEST POP PUSH0 CALLER PUSH20 0xFFFFFFFFFFFFFFFFFFFFFFFFFFFFFFFFFFFFFFFF AND SELFBALANCE PUSH1 0x40 MLOAD PUSH2 0x2A2 SWAP1 PUSH2 0x75C JUMP JUMPDEST PUSH0 PUSH1 0x40 MLOAD DUP1 DUP4 SUB DUP2 DUP6 DUP8 GAS CALL SWAP3 POP POP POP RETURNDATASIZE DUP1 PUSH0 DUP2 EQ PUSH2 0x2DC JUMPI PUSH1 0x40 MLOAD SWAP2 POP PUSH1 0x1F NOT PUSH1 0x3F RETURNDATASIZE ADD AND DUP3 ADD PUSH1 0x40 MSTORE RETURNDATASIZE DUP3 MSTORE RETURNDATASIZE PUSH0 PUSH1 0x20 DUP5 ADD RETURNDATACOPY PUSH2 0x2E1 JUMP JUMPDEST PUSH1 0x60 SWAP2 POP JUMPDEST POP POP SWAP1 POP DUP1 PUSH2 0x325 JUMPI PUSH1 0x40 MLOAD PUSH32 0x8C379A000000000000000000000000000000000000000000000000000000000 DUP2 MSTORE PUSH1 0x4 ADD PUSH2 0x31C SWAP1 PUSH2 0x7CA JUMP JUMPDEST PUSH1 0x40 MLOAD DUP1 SWAP2 SUB SWAP1 REVERT JUMPDEST POP JUMP JUMPDEST PUSH1 0x1 PUSH1 0x20 MSTORE DUP1 PUSH0 MSTORE PUSH1 0x40 PUSH0 KECCAK256 PUSH0 SWAP2 POP SWAP1 POP SLOAD DUP2 JUMP JUMPDEST PUSH8 0x4563918244F40000 DUP2 JUMP JUMPDEST PUSH8 0x4563918244F40000 PUSH2 0x35B CALLVALUE PUSH2 0x474 JUMP JUMPDEST LT ISZERO PUSH2 0x39C JUMPI PUSH1 0x40 MLOAD PUSH32 0x8C379A000000000000000000000000000000000000000000000000000000000 DUP2 MSTORE PUSH1 0x4 ADD PUSH2 0x393 SWAP1 PUSH2 0x832 JUMP JUMPDEST PUSH1 0x40 MLOAD DUP1 SWAP2 SUB SWAP1 REVERT JUMPDEST PUSH0 CALLER SWAP1 DUP1 PUSH1 0x1 DUP2 SLOAD ADD DUP1 DUP3 SSTORE DUP1 SWAP2 POP POP PUSH1 0x1 SWAP1 SUB SWAP1 PUSH0 MSTORE PUSH1 0x20 PUSH0 KECCAK256 ADD PUSH0 SWAP1 SWAP2 SWAP1 SWAP2 SWAP1 SWAP2 PUSH2 0x100 EXP DUP2 SLOAD DUP2 PUSH20 0xFFFFFFFFFFFFFFFFFFFFFFFFFFFFFFFFFFFFFFFF MUL NOT AND SWAP1 DUP4 PUSH20 0xFFFFFFFFFFFFFFFFFFFFFFFFFFFFFFFFFFFFFFFF AND MUL OR SWAP1 SSTORE POP CALLVALUE PUSH1 0x1 PUSH0 CALLER PUSH20 0xFFFFFFFFFFFFFFFFFFFFFFFFFFFFFFFFFFFFFFFF AND PUSH20 0xFFFFFFFFFFFFFFFFFFFFFFFFFFFFFFFFFFFFFFFF AND DUP2 MSTORE PUSH1 0x20 ADD SWAP1 DUP2 MSTORE PUSH1 0x20 ADD PUSH0 KECCAK256 PUSH0 DUP3 DUP3 SLOAD PUSH2 0x447 SWAP2 SWAP1 PUSH2 0x87D JUMP JUMPDEST SWAP3 POP POP DUP2 SWAP1 SSTORE POP JUMP JUMPDEST PUSH32 0x0 DUP2 JUMP JUMPDEST PUSH0 DUP1 PUSH2 0x47E PUSH2 0x4AC JUMP JUMPDEST SWAP1 POP PUSH0 PUSH8 0xDE0B6B3A7640000 DUP5 DUP4 PUSH2 0x496 SWAP2 SWAP1 PUSH2 0x8B0 JUMP JUMPDEST PUSH2 0x4A0 SWAP2 SWAP1 PUSH2 0x91E JUMP JUMPDEST SWAP1 POP DUP1 SWAP3 POP POP POP SWAP2 SWAP1 POP JUMP JUMPDEST PUSH0 DUP1 PUSH20 0x5F4EC3DF9CBD43714FE2740F5E3616155C5B8419 SWAP1 POP PUSH0 DUP2 PUSH20 0xFFFFFFFFFFFFFFFFFFFFFFFFFFFFFFFFFFFFFFFF AND PUSH4 0xFEAF968C PUSH1 0x40 MLOAD DUP2 PUSH4 0xFFFFFFFF AND PUSH1 0xE0 SHL DUP2 MSTORE PUSH1 0x4 ADD PUSH1 0xA0 PUSH1 0x40 MLOAD DUP1 DUP4 SUB DUP2 DUP7 GAS STATICCALL ISZERO DUP1 ISZERO PUSH2 0x50F JUMPI RETURNDATASIZE PUSH0 DUP1 RETURNDATACOPY RETURNDATASIZE PUSH0 REVERT JUMPDEST POP POP POP POP PUSH1 0x40 MLOAD RETURNDATASIZE PUSH1 0x1F NOT PUSH1 0x1F DUP3 ADD AND DUP3 ADD DUP1 PUSH1 0x40 MSTORE POP DUP2 ADD SWAP1 PUSH2 0x533 SWAP2 SWAP1 PUSH2 0x9EA JUMP JUMPDEST POP POP POP SWAP2 POP POP PUSH5 0x2540BE400 DUP2 PUSH2 0x54A SWAP2 SWAP1 PUSH2 0xA61 JUMP JUMPDEST SWAP3 POP POP POP SWAP1 JUMP JUMPDEST DUP3 DUP1 SLOAD DUP3 DUP3 SSTORE SWAP1 PUSH0 MSTORE PUSH1 0x20 PUSH0 KECCAK256 SWAP1 DUP2 ADD SWAP3 DUP3 ISZERO PUSH2 0x5C7 JUMPI SWAP2 PUSH1 0x20 MUL DUP3 ADD JUMPDEST DUP3 DUP2 GT ISZERO PUSH2 0x5C6 JUMPI DUP3 MLOAD DUP3 PUSH0 PUSH2 0x100 EXP DUP2 SLOAD DUP2 PUSH20 0xFFFFFFFFFFFFFFFFFFFFFFFFFFFFFFFFFFFFFFFF MUL NOT AND SWAP1 DUP4 PUSH20 0xFFFFFFFFFFFFFFFFFFFFFFFFFFFFFFFFFFFFFFFF AND MUL OR SWAP1 SSTORE POP SWAP2 PUSH1 0x20 ADD SWAP2 SWAP1 PUSH1 0x1 ADD SWAP1 PUSH2 0x56F JUMP JUMPDEST JUMPDEST POP SWAP1 POP PUSH2 0x5D4 SWAP2 SWAP1 PUSH2 0x5D8 JUMP JUMPDEST POP SWAP1 JUMP JUMPDEST JUMPDEST DUP1 DUP3 GT ISZERO PUSH2 0x5EF JUMPI PUSH0 DUP2 PUSH0 SWAP1 SSTORE POP PUSH1 0x1 ADD PUSH2 0x5D9 JUMP JUMPDEST POP SWAP1 JUMP JUMPDEST PUSH0 DUP1 REVERT JUMPDEST PUSH0 PUSH20 0xFFFFFFFFFFFFFFFFFFFFFFFFFFFFFFFFFFFFFFFF DUP3 AND SWAP1 POP SWAP2 SWAP1 POP JUMP JUMPDEST PUSH0 PUSH2 0x620 DUP3 PUSH2 0x5F7 JUMP JUMPDEST SWAP1 POP SWAP2 SWAP1 POP JUMP JUMPDEST PUSH2 0x630 DUP2 PUSH2 0x616 JUMP JUMPDEST DUP2 EQ PUSH2 0x63A JUMPI PUSH0 DUP1 REVERT JUMPDEST POP JUMP JUMPDEST PUSH0 DUP2 CALLDATALOAD SWAP1 POP PUSH2 0x64B DUP2 PUSH2 0x627 JUMP JUMPDEST SWAP3 SWAP2 POP POP JUMP JUMPDEST PUSH0 PUSH1 0x20 DUP3 DUP5 SUB SLT ISZERO PUSH2 0x666 JUMPI PUSH2 0x665 PUSH2 0x5F3 JUMP JUMPDEST JUMPDEST PUSH0 PUSH2 0x673 DUP5 DUP3 DUP6 ADD PUSH2 0x63D JUMP JUMPDEST SWAP2 POP POP SWAP3 SWAP2 POP POP JUMP JUMPDEST PUSH0 DUP2 SWAP1 POP SWAP2 SWAP1 POP JUMP JUMPDEST PUSH2 0x68E DUP2 PUSH2 0x67C JUMP JUMPDEST DUP3 MSTORE POP POP JUMP JUMPDEST PUSH0 PUSH1 0x20 DUP3 ADD SWAP1 POP PUSH2 0x6A7 PUSH0 DUP4 ADD DUP5 PUSH2 0x685 JUMP JUMPDEST SWAP3 SWAP2 POP POP JUMP JUMPDEST PUSH2 0x6B6 DUP2 PUSH2 0x616 JUMP JUMPDEST DUP3 MSTORE POP POP JUMP JUMPDEST PUSH0 PUSH1 0x20 DUP3 ADD SWAP1 POP PUSH2 0x6CF PUSH0 DUP4 ADD DUP5 PUSH2 0x6AD JUMP JUMPDEST SWAP3 SWAP2 POP POP JUMP JUMPDEST PUSH32 0x4E487B7100000000000000000000000000000000000000000000000000000000 PUSH0 MSTORE PUSH1 0x32 PUSH1 0x4 MSTORE PUSH1 0x24 PUSH0 REVERT JUMPDEST PUSH32 0x4E487B7100000000000000000000000000000000000000000000000000000000 PUSH0 MSTORE PUSH1 0x41 PUSH1 0x4 MSTORE PUSH1 0x24 PUSH0 REVERT JUMPDEST PUSH0 DUP2 SWAP1 POP SWAP3 SWAP2 POP POP JUMP JUMPDEST POP JUMP JUMPDEST PUSH0 PUSH2 0x747 PUSH0 DUP4 PUSH2 0x72F JUMP JUMPDEST SWAP2 POP PUSH2 0x752 DUP3 PUSH2 0x739 JUMP JUMPDEST PUSH0 DUP3 ADD SWAP1 POP SWAP2 SWAP1 POP JUMP JUMPDEST PUSH0 PUSH2 0x766 DUP3 PUSH2 0x73C JUMP JUMPDEST SWAP2 POP DUP2 SWAP1 POP SWAP2 SWAP1 POP JUMP JUMPDEST PUSH0 DUP3 DUP3 MSTORE PUSH1 0x20 DUP3 ADD SWAP1 POP SWAP3 SWAP2 POP POP JUMP JUMPDEST PUSH32 0x63616C6C206661696C6564000000000000000000000000000000000000000000 PUSH0 DUP3 ADD MSTORE POP JUMP JUMPDEST PUSH0 PUSH2 0x7B4 PUSH1 0xB DUP4 PUSH2 0x770 JUMP JUMPDEST SWAP2 POP PUSH2 0x7BF DUP3 PUSH2 0x780 JUMP JUMPDEST PUSH1 0x20 DUP3 ADD SWAP1 POP SWAP2 SWAP1 POP JUMP JUMPDEST PUSH0 PUSH1 0x20 DUP3 ADD SWAP1 POP DUP2 DUP2 SUB PUSH0 DUP4 ADD MSTORE PUSH2 0x7E1 DUP2 PUSH2 0x7A8 JUMP JUMPDEST SWAP1 POP SWAP2 SWAP1 POP JUMP JUMPDEST PUSH32 0x6469646E27742073656E6420656E6F7567682045544800000000000000000000 PUSH0 DUP3 ADD MSTORE POP JUMP JUMPDEST PUSH0 PUSH2 0x81C PUSH1 0x16 DUP4 PUSH2 0x770 JUMP JUMPDEST SWAP2 POP PUSH2 0x827 DUP3 PUSH2 0x7E8 JUMP JUMPDEST PUSH1 0x20 DUP3 ADD SWAP1 POP SWAP2 SWAP1 POP JUMP JUMPDEST PUSH0 PUSH1 0x20 DUP3 ADD SWAP1 POP DUP2 DUP2 SUB PUSH0 DUP4 ADD MSTORE PUSH2 0x849 DUP2 PUSH2 0x810 JUMP JUMPDEST SWAP1 POP SWAP2 SWAP1 POP JUMP JUMPDEST PUSH32 0x4E487B7100000000000000000000000000000000000000000000000000000000 PUSH0 MSTORE PUSH1 0x11 PUSH1 0x4 MSTORE PUSH1 0x24 PUSH0 REVERT JUMPDEST PUSH0 PUSH2 0x887 DUP3 PUSH2 0x67C JUMP JUMPDEST SWAP2 POP PUSH2 0x892 DUP4 PUSH2 0x67C JUMP JUMPDEST SWAP3 POP DUP3 DUP3 ADD SWAP1 POP DUP1 DUP3 GT ISZERO PUSH2 0x8AA JUMPI PUSH2 0x8A9 PUSH2 0x850 JUMP JUMPDEST JUMPDEST SWAP3 SWAP2 POP POP JUMP JUMPDEST PUSH0 PUSH2 0x8BA DUP3 PUSH2 0x67C JUMP JUMPDEST SWAP2 POP PUSH2 0x8C5 DUP4 PUSH2 0x67C JUMP JUMPDEST SWAP3 POP DUP3 DUP3 MUL PUSH2 0x8D3 DUP2 PUSH2 0x67C JUMP JUMPDEST SWAP2 POP DUP3 DUP3 DIV DUP5 EQ DUP4 ISZERO OR PUSH2 0x8EA JUMPI PUSH2 0x8E9 PUSH2 0x850 JUMP JUMPDEST JUMPDEST POP SWAP3 SWAP2 POP POP JUMP JUMPDEST PUSH32 0x4E487B7100000000000000000000000000000000000000000000000000000000 PUSH0 MSTORE PUSH1 0x12 PUSH1 0x4 MSTORE PUSH1 0x24 PUSH0 REVERT JUMPDEST PUSH0 PUSH2 0x928 DUP3 PUSH2 0x67C JUMP JUMPDEST SWAP2 POP PUSH2 0x933 DUP4 PUSH2 0x67C JUMP JUMPDEST SWAP3 POP DUP3 PUSH2 0x943 JUMPI PUSH2 0x942 PUSH2 0x8F1 JUMP JUMPDEST JUMPDEST DUP3 DUP3 DIV SWAP1 POP SWAP3 SWAP2 POP POP JUMP JUMPDEST PUSH0 PUSH10 0xFFFFFFFFFFFFFFFFFFFF DUP3 AND SWAP1 POP SWAP2 SWAP1 POP JUMP JUMPDEST PUSH2 0x96C DUP2 PUSH2 0x94E JUMP JUMPDEST DUP2 EQ PUSH2 0x976 JUMPI PUSH0 DUP1 REVERT JUMPDEST POP JUMP JUMPDEST PUSH0 DUP2 MLOAD SWAP1 POP PUSH2 0x987 DUP2 PUSH2 0x963 JUMP JUMPDEST SWAP3 SWAP2 POP POP JUMP JUMPDEST PUSH0 DUP2 SWAP1 POP SWAP2 SWAP1 POP JUMP JUMPDEST PUSH2 0x99F DUP2 PUSH2 0x98D JUMP JUMPDEST DUP2 EQ PUSH2 0x9A9 JUMPI PUSH0 DUP1 REVERT JUMPDEST POP JUMP JUMPDEST PUSH0 DUP2 MLOAD SWAP1 POP PUSH2 0x9BA DUP2 PUSH2 0x996 JUMP JUMPDEST SWAP3 SWAP2 POP POP JUMP JUMPDEST PUSH2 0x9C9 DUP2 PUSH2 0x67C JUMP JUMPDEST DUP2 EQ PUSH2 0x9D3 JUMPI PUSH0 DUP1 REVERT JUMPDEST POP JUMP JUMPDEST PUSH0 DUP2 MLOAD SWAP1 POP PUSH2 0x9E4 DUP2 PUSH2 0x9C0 JUMP JUMPDEST SWAP3 SWAP2 POP POP JUMP JUMPDEST PUSH0 DUP1 PUSH0 DUP1 PUSH0 PUSH1 0xA0 DUP7 DUP9 SUB SLT ISZERO PUSH2 0xA03 JUMPI PUSH2 0xA02 PUSH2 0x5F3 JUMP JUMPDEST JUMPDEST PUSH0 PUSH2 0xA10 DUP9 DUP3 DUP10 ADD PUSH2 0x979 JUMP JUMPDEST SWAP6 POP POP PUSH1 0x20 PUSH2 0xA21 DUP9 DUP3 DUP10 ADD PUSH2 0x9AC JUMP JUMPDEST SWAP5 POP POP PUSH1 0x40 PUSH2 0xA32 DUP9 DUP3 DUP10 ADD PUSH2 0x9D6 JUMP JUMPDEST SWAP4 POP POP PUSH1 0x60 PUSH2 0xA43 DUP9 DUP3 DUP10 ADD PUSH2 0x9D6 JUMP JUMPDEST SWAP3 POP POP PUSH1 0x80 PUSH2 0xA54 DUP9 DUP3 DUP10 ADD PUSH2 0x979 JUMP JUMPDEST SWAP2 POP POP SWAP3 SWAP6 POP SWAP3 SWAP6 SWAP1 SWAP4 POP JUMP JUMPDEST PUSH0 PUSH2 0xA6B DUP3 PUSH2 0x98D JUMP JUMPDEST SWAP2 POP PUSH2 0xA76 DUP4 PUSH2 0x98D JUMP JUMPDEST SWAP3 POP DUP3 DUP3 MUL PUSH2 0xA84 DUP2 PUSH2 0x98D JUMP JUMPDEST SWAP2 POP PUSH32 0x8000000000000000000000000000000000000000000000000000000000000000 DUP5 EQ PUSH0 DUP5 SLT AND ISZERO PUSH2 0xABB JUMPI PUSH2 0xABA PUSH2 0x850 JUMP JUMPDEST JUMPDEST DUP3 DUP3 SDIV DUP5 EQ DUP4 ISZERO OR PUSH2 0xAD0 JUMPI PUSH2 0xACF PUSH2 0x850 JUMP JUMPDEST JUMPDEST POP SWAP3 SWAP2 POP POP JUMP INVALID LOG2 PUSH5 0x6970667358 0x22 SLT KECCAK256 NOT LOG1 PUSH6 0x35F6EA8F7E4C BLOBHASH 0xF 0x2E 0xCB 0xB8 0xEB PUSH7 0x3358459747C29F 0xBC 0xC9 TLOAD 0xE2 BASEFEE SWAP2 SWAP16 0xC6 PUSH5 0x64736F6C63 NUMBER STOP ADDMOD BYTE STOP CALLER "
				},
				"gasEstimates": {
					"creation": {
						"codeDepositCost": "565800",
						"executionCost": "infinite",
						"totalCost": "infinite"
					},
					"external": {
						"MINIMUM_USD()": "347",
						"addressToAmountFunded(address)": "2802",
						"fund()": "infinite",
						"i_owner()": "infinite",
						"withdraw()": "infinite"
					}
				},
				"methodIdentifiers": {
					"MINIMUM_USD()": "6b69a592",
					"addressToAmountFunded(address)": "3e47d6f3",
					"fund()": "b60d4288",
					"i_owner()": "dba6335f",
					"withdraw()": "3ccfd60b"
				}
			},
			"storageLayout": {
				"storage": [
					{
						"astId": 60,
						"contract": "contracts/FundMe.sol:FundMe",
						"label": "funders",
						"offset": 0,
						"slot": "0",
						"type": "t_array(t_address)dyn_storage"
					},
					{
						"astId": 64,
						"contract": "contracts/FundMe.sol:FundMe",
						"label": "addressToAmountFunded",
						"offset": 0,
						"slot": "1",
						"type": "t_mapping(t_address,t_uint256)"
					}
				],
				"types": {
					"t_address": {
						"encoding": "inplace",
						"label": "address",
						"numberOfBytes": "20"
					},
					"t_array(t_address)dyn_storage": {
						"base": "t_address",
						"encoding": "dynamic_array",
						"label": "address[]",
						"numberOfBytes": "32"
					},
					"t_mapping(t_address,t_uint256)": {
						"encoding": "mapping",
						"key": "t_address",
						"label": "mapping(address => uint256)",
						"numberOfBytes": "32",
						"value": "t_uint256"
					},
					"t_uint256": {
						"encoding": "inplace",
						"label": "uint256",
						"numberOfBytes": "32"
					}
				}
			},
			"userdoc": {
				"kind": "user",
				"methods": {},
				"version": 1
			}
		}
	}
}